:020000040800F2
:1000000000000220CD7E0008017D0008097D000867
:10001000117D0008197D0008217D00080000000006
:10002000000000000000000000000000B1670008B0
:10003000297D000800000000016A000881600008B6
:100040001D7F00081D7F00081D7F00081D7F000820
:100050001D7F00081D7F00081D7F00081D7F000810
:100060001D7F00081D7F00081D7F00081D7F000800
:100070001D7F00081D7F00081D7F00081D7F0008F0
:100080001D7F00081D7F00081D7F00081D7F0008E0
:10009000397D00084D7D00081D7F00081D7F000888
:1000A0001D7F00081D7F00081D7F00081D7F0008C0
:1000B0001D7F00081D7F00081D7F00081D7F0008B0
:1000C0001D7F00081D7F00081D7F00081D7F0008A0
:1000D0001D7F00081D7F00081D7F00081D7F000890
:1000E0001D7F00081D7F00081D7F00081D7F000880
:1000F0001D7F0008617D00081D7F00081D7F00082E
:100100001D7F00081D7F00081D7F00081D7F00085F
:100110001D7F00081D7F00081D7F00081D7F00084F
:100120001D7F00081D7F00081D7F00081D7F00083F
:100130001D7F00081D7F00081D7F00081D7F00082F
:100140001D7F00081D7F00081D7F00081D7F00081F
:100150001D7F00081D7F00081D7F00081D7F00080F
:100160001D7F00081D7F00081D7F00081D7F0008FF
:100170001D7F00081D7F00081D7F00080000000093
:080180001D7F00081D7F00082F
:1001900053B94AB9002908BF00281CBF4FF0FF31EE
:1001A0004FF0FF3000F00CB8ADF1080C6DE904CE53
:1001B00008F0C6FDDDF804E0DDE9022304B0704775
:1001C000704700BF830730B547D0541E002A3ED089
:1001D000CAB2034601E0013C39D303F8012B9D0765
:1001E000F9D1032C2CD9CDB205EB05250F2C05EB4D
:1001F000054535D9A4F1100222F00F0C03F1100EC1
:10020000E6444FEA121C1A46156055609560D560A9
:1002100010327245F8D10CF1010214F00C0F03EB0F
:10022000021204F00F0C13D0ACF1040323F003030B
:100230000433134442F8045B9A42FBD10CF00304EC
:100240002CB1C9B21C4403F8011B9C42FBD130BD48
:1002500064461346002CF4D1F9E703461446C0E780
:100260001A46A446E0E700BF70B50F4B0F4DAB42F6
:10027000A3EB050607D0B610002455F8043B013463
:100280009847A642F9D808F0ABFE094D094B5E1B12
:10029000AB424FEAA60606D0002455F8043B0134D1
:1002A0009847A642F9D870BD909000089090000839
:1002B0009090000894900008844641EA000313F0EF
:1002C00003036DD1403A41D351F8043B40F8043B5D
:1002D00051F8043B40F8043B51F8043B40F8043B20
:1002E00051F8043B40F8043B51F8043B40F8043B10
:1002F00051F8043B40F8043B51F8043B40F8043B00
:1003000051F8043B40F8043B51F8043B40F8043BEF
:1003100051F8043B40F8043B51F8043B40F8043BDF
:1003200051F8043B40F8043B51F8043B40F8043BCF
:1003300051F8043B40F8043B51F8043B40F8043BBF
:1003400051F8043B40F8043B403ABDD2303211D35F
:1003500051F8043B40F8043B51F8043B40F8043B9F
:1003600051F8043B40F8043B51F8043B40F8043B8F
:10037000103AEDD20C3205D351F8043B40F8043B5F
:10038000043AF9D2043208D0D2071CBF11F8013B5D
:1003900000F8013B01D30B8803806046704700BF23
:1003A000082A13D38B078DD010F003038AD0C3F132
:1003B0000403D21ADB071CBF11F8013B00F8013B14
:1003C00080D331F8023B20F8023B7BE7043AD9D3D3
:1003D000013A11F8013B00F8013BF9D20B780370A8
:1003E0004B7843708B7883706046704710B5054C2E
:1003F000237833B9044B13B10448AFF300800123D1
:10040000237010BDB001002000000000E08F000844
:1004100008B5034B1BB103490348AFF3008008BD87
:1004200000000000B4010020E08F000880B400AF9D
:10043000064BD3F88830054A43F47003C2F888307D
:1004400000BFBD465DF8047B704700BF00ED00E0D3
:1004500080B582B000AF78607B68002B01D10123AA
:1004600041E07B6893F83D30DBB2002B06D17B681E
:10047000002283F83C20786807F060FA7B6802224B
:1004800083F83D207B681A687B6804331946104660
:1004900000F044FC7B68012283F846207B6801223F
:1004A00083F83E207B68012283F83F207B6801228D
:1004B00083F840207B68012283F841207B68012279
:1004C00083F842207B68012283F843207B68012265
:1004D00083F844207B68012283F845207B68012251
:1004E00083F83D20002318460837BD4680BD000034
:1004F00080B485B000AF78607B6893F83D30DBB2A4
:10050000012B01D001234EE07B68022283F83D20BD
:100510007B681B68DA687B681B6842F00102DA605E
:100520007B681B68234A934222D07B681B68B3F127
:10053000804F1DD07B681B681F4A934218D07B6890
:100540001B681E4A934213D07B681B681C4A934267
:100550000ED07B681B681B4A934209D07B681B68DE
:10056000194A934204D07B681B68184A934211D100
:100570007B681B689B6803F00703FB60FB68062B26
:1005800010D07B681B681A687B681B6842F0010208
:100590001A6007E07B681B681A687B681B6842F07A
:1005A00001021A60002318461437BD465DF8047B2B
:1005B000704700BF000001400004004000080040F8
:1005C000000C0040000401400040014000180040C1
:1005D00080B582B000AF78607B68002B01D1012329
:1005E00041E07B6893F83D30DBB2002B06D17B689D
:1005F000002283F83C20786800F039F87B680222FA
:1006000083F83D207B681A687B68043319461046DE
:1006100000F084FB7B68012283F846207B6801227E
:1006200083F83E207B68012283F83F207B6801220B
:1006300083F840207B68012283F841207B680122F7
:1006400083F842207B68012283F843207B680122E3
:1006500083F844207B68012283F845207B680122CF
:1006600083F83D20002318460837BD4680BD80B47E
:1006700083B000AF786000BF0C37BD465DF8047BE7
:10068000704780B582B000AF78607B68002B01D1E5
:10069000012341E07B6893F83D30DBB2002B06D1AB
:1006A0007B68002283F83C20786807F0B1F97B680A
:1006B000022283F83D207B681A687B680433194660
:1006C000104600F02BFB7B68012283F846207B68F4
:1006D000012283F83E207B68012283F83F207B685B
:1006E000012283F840207B68012283F841207B6847
:1006F000012283F842207B68012283F843207B6833
:10070000012283F844207B68012283F845207B681E
:10071000012283F83D20002318460837BD4680BDDE
:1007200080B584B000AF78607B681B68DB68FB60D5
:100730007B681B681B69BB60BB6803F00203002B6E
:1007400020D0FB6803F00203002B1BD07B681B68E2
:100750006FF002021A617B6801221A777B681B68BE
:100760009B6903F00303002B03D0786800F0B7FA0D
:1007700005E0786800F0A9FA786800F0BAFA7B68BA
:1007800000221A77BB6803F00403002B20D0FB681B
:1007900003F00403002B1BD07B681B686FF004027E
:1007A0001A617B6802221A777B681B689B6903F4D5
:1007B0004073002B03D0786800F091FA05E0786868
:1007C00000F083FA786800F094FA7B6800221A77C8
:1007D000BB6803F00803002B20D0FB6803F008037C
:1007E000002B1BD07B681B686FF008021A617B68C6
:1007F00004221A777B681B68DB6903F00303002B74
:1008000003D0786800F06BFA05E0786800F05DFAD4
:10081000786800F06EFA7B6800221A77BB6803F0F4
:100820001003002B20D0FB6803F01003002B1BD01B
:100830007B681B686FF010021A617B6808221A77C8
:100840007B681B68DB6903F44073002B03D0786876
:1008500000F045FA05E0786800F037FA786800F0B3
:1008600048FA7B6800221A77BB6803F00103002B6B
:100870000CD0FB6803F00103002B07D07B681B68DA
:100880006FF001021A61786806F010FABB6803F095
:100890008003002B0CD0FB6803F08003002B07D0F3
:1008A0007B681B686FF080021A61786800F0FEFDBB
:1008B000BB6803F04003002B0CD0FB6803F040033F
:1008C000002B07D07B681B686FF040021A617868C4
:1008D00000F019FABB6803F02003002B0CD0FB6872
:1008E00003F02003002B07D07B681B686FF0200209
:1008F0001A61786800F0D0FD00BF1037BD4680BD9A
:1009000080B586B000AFF860B9607A600023FB75EF
:10091000FB6893F83C30012B01D1022348E0FB68CF
:10092000012283F83C207B680C2B39D801A252F8B5
:1009300023F000BF69090008A1090008A109000807
:10094000A109000877090008A1090008A109000809
:10095000A109000885090008A1090008A1090008EB
:10096000A109000893090008FB681B68B9681846CC
:1009700000F07AFA17E0FB681B68B968184600F0C7
:10098000E3FA10E0FB681B68B968184600F052FBF8
:1009900009E0FB681B68B968184600F0BFFB02E07D
:1009A0000123FB7500BFFB68002283F83C20FB7D20
:1009B00018461837BD4680BD80B586B000AFF860D8
:1009C000B9607A600023FB75FB6893F83C30012B1B
:1009D00001D10223AEE0FB68012283F83C207B6852
:1009E0000C2B00F29F8001A252F823F0210A00088C
:1009F000250B0008250B0008250B0008610A0008DC
:100A0000250B0008250B0008250B0008A30A000889
:100A1000250B0008250B0008250B0008E30A000839
:100A2000FB681B68B968184600F01EFAFB681B6873
:100A30009A69FB681B6842F008029A61FB681B68B0
:100A40009A69FB681B6822F004029A61FB681B68C4
:100A50009969BB681A69FB681B680A439A6164E07C
:100A6000FB681B68B968184600F06EFAFB681B68E3
:100A70009A69FB681B6842F400629A61FB681B6814
:100A80009A69FB681B6822F480629A61FB681B68A4
:100A90009969BB681B691A02FB681B680A439A6163
:100AA00043E0FB681B68B968184600F0C3FAFB68AE
:100AB0001B68DA69FB681B6842F00802DA61FB68B0
:100AC0001B68DA69FB681B6822F00402DA61FB68C4
:100AD0001B68D969BB681A69FB681B680A43DA613D
:100AE00023E0FB681B68B968184600F017FBFB6839
:100AF0001B68DA69FB681B6842F40062DA61FB6814
:100B00001B68DA69FB681B6822F48062DA61FB68A3
:100B10001B68D969BB681B691A02FB681B680A431A
:100B2000DA6102E00123FB7500BFFB68002283F855
:100B30003C20FB7D18461837BD4680BD80B584B08B
:100B400000AF786039600023FB737B6893F83C301A
:100B5000012B01D10223B4E07B68012283F83C2001
:100B60007B68022283F83D207B681B689B68BB6022
:100B7000BB6823F07703BB60BB6823F47F43BB6093
:100B80007B681B68BA689A603B681B68B3F5005FB6
:100B90003ED0B3F5005F00F28780B3F5805F00F0D0
:100BA0008680B3F5805F7FD8702B1AD0702B7BD8EE
:100BB000602B50D0602B77D8502B3CD0502B73D863
:100BC000402B58D0402B6FD8302B64D0302B6BD8B3
:100BD000202B60D0202B67D8002B5CD0102B5AD054
:100BE00062E07B6818683B6899683B685A683B68B4
:100BF000DB6800F063FB7B681B689B68BB60BB68BD
:100C000043F07703BB607B681B68BA689A604FE06B
:100C10007B6818683B6899683B685A683B68DB6882
:100C200000F04CFB7B681B689A687B681B6842F489
:100C300080429A603CE07B6818683B6859683B6872
:100C4000DB681A4600F0C0FA7B681B685021184622
:100C500000F019FB2CE07B6818683B6859683B681A
:100C6000DB681A4600F0DFFA7B681B6860211846D3
:100C700000F009FB1CE07B6818683B6859683B681A
:100C8000DB681A4600F0A0FA7B681B684021184612
:100C900000F0F9FA0CE07B681A683B681B6819469B
:100CA000104600F0F0FA03E00123FB7300E000BF00
:100CB0007B68012283F83D207B68002283F83C207A
:100CC000FB7B18461037BD4680BD80B483B000AFB3
:100CD000786000BF0C37BD465DF8047B704780B478
:100CE00083B000AF786000BF0C37BD465DF8047B71
:100CF000704780B483B000AF786000BF0C37BD464A
:100D00005DF8047B704780B483B000AF786000BFAB
:100D10000C37BD465DF8047B7047000080B485B099
:100D200000AF786039607B681B68FB607B68434A72
:100D3000934213D07B68B3F1804F0FD07B68404A59
:100D400093420BD07B683F4A934207D07B683E4A70
:100D5000934203D07B683D4A934208D1FB6823F05D
:100D60007003FB603B685B68FA681343FB607B6859
:100D7000324A93422BD07B68B3F1804F27D07B68F7
:100D80002F4A934223D07B682E4A93421FD07B6820
:100D90002D4A93421BD07B682C4A934217D07B6824
:100DA0002B4A934213D07B682A4A93420FD07B6828
:100DB000294A93420BD07B68284A934207D07B682C
:100DC000274A934203D07B68264A934208D1FB68A6
:100DD00023F44073FB603B68DB68FA681343FB60F5
:100DE000FB6823F080023B685B691343FB603B6850
:100DF0009A687B68DA623B681A687B689A627B68EB
:100E00000E4A934203D07B68104A934203D13B6859
:100E10001A697B681A637B681B6843F004027B686D
:100E20001A607B6801225A617B68FA681A6000BF09
:100E30001437BD465DF8047B704700BF00000140D9
:100E40000004004000080040000C00400004014085
:100E500000400140004401400048014000180040AB
:100E6000001C00400020004080B487B000AF7860D4
:100E700039607B681B6A7B617B681B6A23F0010217
:100E80007B681A627B685B683B617B689B69FB607F
:100E9000FB6823F07003FB60FB6823F00303FB6037
:100EA0003B681B68FA681343FB607B6923F002030D
:100EB0007B613B689B687A6913437B617B68204A4E
:100EC000934203D07B681F4A93420CD17B6923F085
:100ED00008037B613B68DB687A6913437B617B694C
:100EE00023F004037B617B68154A934203D07B683F
:100EF000144A934211D13B6923F480733B613B69EF
:100F000023F400733B613B685B693A6913433B61BF
:100F10003B689B693A6913433B617B683A695A6055
:100F20007B68FA689A613B685A687B685A637B6899
:100F30007A691A6200BF1C37BD465DF8047B7047B2
:100F4000000001400004014080B487B000AF786029
:100F500039607B681B6A7B617B681B6A23F0100227
:100F60007B681A627B685B683B617B689B69FB609E
:100F7000FB6823F4E043FB60FB6823F44073FB60F1
:100F80003B681B681B02FA681343FB607B6923F014
:100F900020037B613B689B681B017A6913437B617B
:100FA0007B68224A934203D07B68214A93420DD149
:100FB0007B6923F080037B613B68DB681B017A69F6
:100FC00013437B617B6923F040037B617B68174A95
:100FD000934203D07B68164A934213D13B6923F4B2
:100FE00080633B613B6923F400633B613B685B6961
:100FF0009B003A6913433B613B689B699B003A69DC
:1010000013433B617B683A695A607B68FA689A616E
:101010003B685A687B689A637B687A691A6200BF8A
:101020001C37BD465DF8047B704700BF00000140DF
:101030000004014080B487B000AF786039607B68FD
:101040001B6A7B617B681B6A23F480727B681A626F
:101050007B685B683B617B68DB69FB60FB6823F056
:101060007003FB60FB6823F00303FB603B681B68B5
:10107000FA681343FB607B6923F400737B613B6870
:101080009B681B027A6913437B617B68214A934208
:1010900003D07B68204A93420DD17B6923F400631F
:1010A0007B613B68DB681B027A6913437B617B6968
:1010B00023F480637B617B68164A934203D07B688C
:1010C000154A934213D13B6923F480533B613B693A
:1010D00023F400533B613B685B691B013A6913438E
:1010E0003B613B689B691B013A6913433B617B6829
:1010F0003A695A607B68FA68DA613B685A687B68CB
:10110000DA637B687A691A6200BF1C37BD465DF8F6
:10111000047B7047000001400004014080B487B0A8
:1011200000AF786039607B681B6A3B617B681B6A33
:1011300023F480527B681A627B685B687B617B6802
:10114000DB69FB60FB6823F4E043FB60FB6823F48E
:101150004073FB603B681B681B02FA681343FB602B
:101160003B6923F400533B613B689B681B033A696E
:1011700013433B617B68124A934203D07B68114A58
:10118000934209D17B6923F480437B613B685B69AF
:101190009B017A6913437B617B687A695A607B683B
:1011A000FA68DA613B685A687B681A647B683A6956
:1011B0001A6200BF1C37BD465DF8047B704700BF54
:1011C000000001400004014080B487B000AFF86027
:1011D000B9607A60FB681B6A7B61FB681B6A23F05D
:1011E0000102FB681A62FB689B693B613B6923F063
:1011F000F0033B617B681B013A6913433B617B69E8
:1012000023F00A037B617A69BB6813437B61FB6847
:101210003A699A61FB687A691A6200BF1C37BD4659
:101220005DF8047B704780B487B000AFF860B960A8
:101230007A60FB681B6A7B61FB681B6A23F0100203
:10124000FB681A62FB689B693B613B6923F470434E
:101250003B617B681B033A6913433B617B6923F065
:10126000A0037B61BB681B017A6913437B61FB6848
:101270003A699A61FB687A691A6200BF1C37BD46F9
:101280005DF8047B704780B485B000AF786039604A
:101290007B689B68FB60FB6823F07003FB603A6827
:1012A000FB68134343F00703FB607B68FA689A60AE
:1012B00000BF1437BD465DF8047B704780B487B02B
:1012C00000AFF860B9607A603B60FB689B687B6147
:1012D0007B6923F47F437B613B681A027B681A4376
:1012E000BB6813437A6913437B61FB687A699A6030
:1012F00000BF1C37BD465DF8047B704780B485B0E5
:1013000000AF786039607B6893F83C30012B01D1E5
:1013100002235AE07B68012283F83C207B6802228A
:1013200083F83D207B681B685B68FB607B681B68FB
:101330009B68BB60FB6823F07003FB603B681B6825
:10134000FA681343FB607B681B68FA685A607B6825
:101350001B68214A934222D07B681B68B3F1804FFF
:101360001DD07B681B681D4A934218D07B681B68A0
:101370001B4A934213D07B681B681A4A93420ED0D3
:101380007B681B68184A934209D07B681B68174A20
:10139000934204D07B681B68154A93420CD1BB680A
:1013A00023F08003BB603B685B68BA681343BB6093
:1013B0007B681B68BA689A607B68012283F83D20CD
:1013C0007B68002283F83C20002318461437BD4672
:1013D0005DF8047B704700BF00000140000400403E
:1013E00000080040000C00400004014000400140A3
:1013F0000018004080B485B000AF786039600023E9
:10140000FB607B6893F83C30012B01D102233DE067
:101410007B68012283F83C20FB6823F0FF023B68D5
:10142000DB681343FB60FB6823F440723B689B68F6
:101430001343FB60FB6823F480623B685B681343E3
:10144000FB60FB6823F400623B681B681343FB608E
:10145000FB6823F480523B681B691343FB60FB6805
:1014600023F400523B685B691343FB60FB6823F481
:1014700080423B68DB691343FB607B681B68FA684A
:101480005A647B68002283F83C20002318461437F6
:10149000BD465DF8047B704780B483B000AF7860D0
:1014A00000BF0C37BD465DF8047B704780B483B045
:1014B00000AF786000BF0C37BD465DF8047B704715
:1014C00080B584B000AF78600023FB737B68002B8D
:1014D00001D1012333E07B681B6C002B09D17868B4
:1014E00005F04CFD7B6800225A647B68002283F87B
:1014F0003C207B681B6C03F01003002B18D17B6829
:101500001B6C23F4885323F0020343F002027B6830
:101510001A64786800F03AF97B6800225A647B68A4
:101520001B6C23F0030343F001027B681A6401E0A3
:101530000123FB737B68002283F83C20FB7B184669
:101540001037BD4680BD000080B485B000AF786024
:1015500039600023BB607B6893F83C30012B01D1DC
:10156000022305E17B68012283F83C203B681B686D
:10157000092B25D97B681B68D9683B681B689BB21F
:101580001A4613465B0013441E3B072202FA03F37C
:10159000DA437B681B680A40DA607B681B68D9689D
:1015A0003B689A683B681B689BB2184603465B0021
:1015B00003441E3B9A407B681B680A43DA6022E0C2
:1015C0007B681B6819693B681B689BB21A46134607
:1015D0005B001344072202FA03F3DA437B681B68BB
:1015E0000A401A617B681B6819693B689A683B6806
:1015F0001B689BB2184603465B0003449A407B6815
:101600001B680A431A613B685B68062B24D87B6819
:101610001B68596B3B685A6813469B001344053B93
:101620001F2202FA03F3DA437B681B680A405A63FD
:101630007B681B68596B3B681B689BB218463B680C
:101640005A6813469B001344053B00FA03F27B687B
:101650001B680A435A634CE03B685B680C2B24D838
:101660007B681B68196B3B685A6813469B001344E0
:10167000233B1F2202FA03F3DA437B681B680A400C
:101680001A637B681B68196B3B681B689BB2184622
:101690003B685A6813469B001344233B00FA03F24D
:1016A0007B681B680A431A6323E07B681B68D96A5E
:1016B0003B685A6813469B001344413B1F2202FAC1
:1016C00003F3DA437B681B680A40DA627B681B68B5
:1016D000D96A3B681B689BB218463B685A68134638
:1016E0009B001344413B00FA03F27B681B680A43EA
:1016F000DA62224BFB607B681B68214A934209D166
:101700003B681B68122B05D1FB685B6843F48002C1
:10171000FB685A607B681B68194A934223D13B6877
:101720001B68102B03D03B681B68112B1BD1FB6877
:101730005B6843F40002FB685A603B681B68102B2F
:1017400011D1104B1B68104AA2FB03239A0C1346BD
:101750009B0013445B00BB6002E0BB68013BBB60C5
:10176000BB68002BF9D17B68002283F83C20002362
:1017700018461437BD465DF8047B704700230140CE
:10178000002001400000002083DE1B4380B485B0B0
:1017900000AF7860794BFB60FB685B6823F44032F4
:1017A000FB685A60FB685A687B685B681A43FB6891
:1017B0005A607B681B685A687B681B6822F48072D9
:1017C0005A607B681B6859687B681B691A027B68D2
:1017D0001B680A435A607B681B685A687B681B68F1
:1017E00022F040725A607B681B6859687B689A686F
:1017F0007B681B680A435A607B681B689A687B6831
:101800001B6822F400629A607B681B6899687B6899
:10181000DA687B681B680A439A607B689B6A584A4F
:10182000934222D07B681B689A687B681B6822F011
:1018300070629A607B681B6899687B689A6A7B68AB
:101840001B680A439A607B681B689A687B681B6800
:1018500022F040529A607B681B6899687B68DA6A5C
:101860007B681B680A439A600FE07B681B689A6874
:101870007B681B6822F070629A607B681B689A68BC
:101880007B681B6822F040529A607B681B689A68EC
:101890007B681B6822F002029A607B681B6899686B
:1018A0007B681B7E5A007B681B680A439A607B68D2
:1018B00093F82030002B1BD07B681B685A687B682C
:1018C0001B6842F400625A607B681B685A687B6838
:1018D0001B6822F460425A607B681B6859687B6809
:1018E0005B6A013B5A037B681B680A435A6007E046
:1018F0007B681B685A687B681B6822F400625A6028
:101900007B681B68DA6A7B681B6822F47002DA6203
:101910007B681B68D96A7B68DB69013B1A057B68B9
:101920001B680A43DA627B681B689A687B681B68DD
:1019300022F400729A607B681B6899687B6893F850
:1019400030305A027B681B680A439A607B681B68C8
:101950009A687B681B6822F480629A607B681B68C7
:1019600099687B685B699A027B681B680A439A6086
:1019700000BF1437BD465DF8047B7047002301406B
:101980000100000F80B586B000AF78607B68002B47
:1019900001D1012367E27B681B6803F00103002B80
:1019A00075D0884B9B6803F00C03042B0CD0854B3F
:1019B0009B6803F00C03082B12D1824B5B6803F485
:1019C0008003B3F5800F0BD17E4B1B6803F400330B
:1019D000002B5BD07B685B68002B57D1012342E270
:1019E0007B685B68B3F5803F06D1764B1B68754A10
:1019F00043F4803313601DE07B685B68B3F5A02F70
:101A00000CD1704B1B686F4A43F4802313606D4BFD
:101A10001B686C4A43F4803313600BE0694B1B680E
:101A2000684A23F480331360664B1B68654A23F4CD
:101A3000802313607B685B68002B13D000F0E6FE08
:101A4000386108E000F0E2FE02463B69D31A642BDD
:101A500001D9032307E25B4B1B6803F40033002B1F
:101A6000F0D014E000F0D2FE386108E000F0CEFEC5
:101A700002463B69D31A642B01D90323F3E1514B8E
:101A80001B6803F40033002BF0D100E000BF7B683B
:101A90001B6803F00203002B63D04A4B9B6803F0E2
:101AA0000C03002B0BD0474B9B6803F00C03082B57
:101AB0001CD1444B5B6803F48003002B16D1414BCF
:101AC0001B6803F00203002B05D07B68DB68012B49
:101AD00001D00123C7E13B4B1B6823F0F8027B6870
:101AE0001B69DB00374913430B603AE07B68DB6816
:101AF000002B20D0344B01221A6000F087FE3861A1
:101B000008E000F083FE02463B69D31A022B01D99C
:101B10000323A8E12B4B1B6803F00203002BF0D03A
:101B2000284B1B6823F0F8027B681B69DB00254902
:101B300013430B6015E0244B00221A6000F066FE90
:101B4000386108E000F062FE02463B69D31A022BBE
:101B500001D9032387E11B4B1B6803F00203002B11
:101B6000F0D17B681B6803F00803002B36D07B683C
:101B70005B69002B16D0154B01221A6000F046FE5F
:101B8000386108E000F042FE02463B69D31A022B9E
:101B900001D9032367E10B4B5B6F03F00203002BBA
:101BA000F0D01BE0094B00221A6000F02FFE3861D4
:101BB0000EE000F02BFE02463B69D31A022B07D938
:101BC000032350E10038024000004742800E4742A4
:101BD000884B5B6F03F00203002BEAD17B681B6824
:101BE00003F00403002B00F097800023FB75814B6A
:101BF0001B6C03F08053002B0FD10023BB607D4B87
:101C00001B6C7C4A43F0805313647A4B1B6C03F0CB
:101C10008053BB60BB680123FB75774B1B6803F4E3
:101C20008073002B18D1744B1B68734A43F4807384
:101C3000136000F0EBFD386108E000F0E7FD0246BC
:101C40003B69D31A022B01D903230CE16A4B1B68B1
:101C500003F48073002BF0D07B689B68012B06D1C6
:101C6000644B1B6F634A43F0010313671CE07B68FE
:101C70009B68052B0CD15F4B1B6F5E4A43F004033E
:101C800013675C4B1B6F5B4A43F0010313670BE068
:101C9000584B1B6F574A23F001031367554B1B6FBB
:101CA000544A23F0040313677B689B68002B15D00C
:101CB00000F0ACFD38610AE000F0A8FD02463B6987
:101CC000D31A41F28832934201D90323CBE0494B26
:101CD0001B6F03F00203002BEED014E000F096FD22
:101CE00038610AE000F092FD02463B69D31A41F2E6
:101CF0008832934201D90323B5E03E4B1B6F03F0BA
:101D00000203002BEED1FB7D012B05D1394B1B6C5F
:101D1000384A23F0805313647B689B69002B00F0E2
:101D2000A180344B9B6803F00C03082B5CD07B68CC
:101D30009B69022B41D1314B00221A6000F066FDF5
:101D4000386108E000F062FD02463B69D31A022BBD
:101D500001D9032387E0274B1B6803F00073002B96
:101D6000F0D17B68DA697B681B6A1A437B685B6A1F
:101D70009B011A437B689B6A5B08013B1B041A4367
:101D80007B68DB6A1B061B4913434B601B4B01221C
:101D90001A6000F03BFD386108E000F037FD0246B4
:101DA0003B69D31A022B01D903235CE0114B1B685A
:101DB00003F00073002BF0D054E0104B00221A60A7
:101DC00000F024FD386108E000F020FD02463B6988
:101DD000D31A022B01D9032345E0064B1B6803F0FD
:101DE0000073002BF0D13DE07B689B69012B07D18C
:101DF000012338E000380240007000406000474294
:101E00001B4B5B68FB607B689B69012B28D0FB68E0
:101E100003F480027B68DB699A4221D1FB6803F0FE
:101E20003F027B681B6A9A421AD1FA6847F6C07370
:101E300013407A68526A9201934211D1FB6803F40D
:101E400040327B689B6A5B08013B1B049A4207D1C6
:101E5000FB6803F070627B68DB6A1B069A4201D064
:101E6000012300E0002318461837BD4680BD00BF9F
:101E70000038024080B584B000AF786039607B687C
:101E8000002B01D10123CCE0684B1B6803F0070352
:101E90003A689A420CD9654B3A68D2B21A70634BD1
:101EA0001B6803F007033A689A4201D00123B8E0A7
:101EB0007B681B6803F00203002B20D07B681B6843
:101EC00003F00403002B05D0594B9B68584A43F498
:101ED000E05393607B681B6803F00803002B05D078
:101EE000534B9B68524A43F460439360504B9B684A
:101EF00023F0F0027B689B684D4913438B607B683D
:101F00001B6803F00103002B44D07B685B68012B46
:101F100007D1474B1B6803F40033002B19D1012371
:101F20007FE07B685B68022B03D07B685B68032BD8
:101F300007D13F4B1B6803F00073002B09D101232D
:101F40006FE03B4B1B6803F00203002B01D1012320
:101F500067E0374B9B6823F003027B685B6834497A
:101F600013438B6000F052FCF8600AE000F04EFC76
:101F70000246FB68D31A41F28832934201D9032307
:101F80004FE02B4B9B6803F00C027B685B689B0067
:101F90009A42EBD1254B1B6803F007033A689A423B
:101FA0000CD2224B3A68D2B21A70204B1B6803F055
:101FB00007033A689A4201D0012332E07B681B682C
:101FC00003F00403002B08D0194B9B6823F4E05264
:101FD0007B68DB68164913438B607B681B6803F0E2
:101FE0000803002B09D0124B9B6823F460427B68E6
:101FF0001B69DB000E4913438B6000F021F8024699
:102000000B4B9B681B0903F00F030A49CB5C22FAB8
:1020100003F3094A1360094B1B68184605F0DAFE02
:10202000002318461037BD4680BD00BF003C02406B
:102030000038024028900008000000200400002022
:102040002DE9B04F90B000AF00237B630023FB630A
:1020500000233B630023BB63594B9B6803F00C03D5
:10206000082B0DD0082B00F2A180002B02D0042BEE
:1020700003D09BE0534BBB639BE0534BBB6398E0A7
:102080004F4B5B6803F03F037B634D4B5B6803F48E
:102090008003002B28D04A4B5B689B0900223B62DF
:1020A0007A623B6AC3F308000021474B03FB01F24D
:1020B000002300FB03F31344434AA0FB0212FA621D
:1020C0000A46BA62FA6A1344FB627B6B0022BB6168
:1020D000FA61D7E90623D7E90A01FEF759F8024663
:1020E0000B461346FB6353E0354B5B689B090022AC
:1020F0003B617A613B69C3F3080A4FF0000B52461B
:102100005B464FF000004FF00001590141EAD261F7
:10211000500102460B46B2EB0A0863EB0B094FF085
:1021200000024FF000034FEA891343EA98634FEA35
:102130008812B2EB080463EB09054FF000024FF080
:102140000003EB0043EA5473E20014461D4614EB0F
:102150000A033B6045EB0B037B604FF000024FF03E
:102160000003D7E9004529468B02214643EA9153F3
:1021700021468A02104619467B6B0022BB60FA603A
:10218000D7E90223FEF704F802460B461346FB6329
:102190000B4B5B681B0C03F0030301335B003B63D9
:1021A000FA6B3B6BB2FBF3F3BB6302E0054BBB6323
:1021B00000BFBB6B18464037BD46BDE8B08F00BFBF
:1021C000003802400024F400001BB70080B400AFC8
:1021D000034B1B681846BD465DF8047B704700BF83
:1021E0000000002080B500AFFFF7F0FF0246054B6E
:1021F0009B689B0A03F007030349CB5C22FA03F3B5
:10220000184680BD003802403890000880B483B082
:1022100000AF786039607B680F221A60124B9B68B0
:1022200003F003027B685A600F4B9B6803F0F002D7
:102230007B689A600C4B9B6803F4E0527B68DA6021
:10224000094B9B68DB0803F4E0527B681A61074B7B
:102250001B6803F007023B681A6000BF0C37BD46DD
:102260005DF8047B704700BF00380240003C02402C
:1022700080B489B000AF7860396000237B610023AF
:102280003B610023BB610023FB616BE10122FB6921
:1022900002FA03F37B613B681B687A6913403B6178
:1022A0003A697B699A4240F05A813B685B6803F067
:1022B0000303012B05D03B685B6803F00303022B8B
:1022C00030D17B689B68BB61FB695B00032202FA2B
:1022D00003F3DB43BA691340BB613B68DA68FB690F
:1022E0005B0002FA03F3BA691343BB617B68BA6906
:1022F0009A607B685B68BB610122FB6902FA03F3A9
:10230000DB43BA691340BB613B685B681B0903F0A0
:102310000102FB6902FA03F3BA691343BB617B68EC
:10232000BA695A603B685B6803F00303032B17D05C
:102330007B68DB68BB61FB695B00032202FA03F385
:10234000DB43BA691340BB613B689A68FB695B0079
:1023500002FA03F3BA691343BB617B68BA69DA60B6
:102360003B685B6803F00303022B23D1FB69DA08A7
:102370007B68083253F82230BB61FB6903F0070326
:102380009B000F2202FA03F3DB43BA691340BB61DF
:102390003B681A69FB6903F007039B0002FA03F329
:1023A000BA691343BB61FB69DA087B680832B96913
:1023B00043F822107B681B68BB61FB695B0003224A
:1023C00002FA03F3DB43BA691340BB613B685B6805
:1023D00003F00302FB695B0002FA03F3BA691343DB
:1023E000BB617B68BA691A603B685B6803F4403381
:1023F000002B00F0B4800023FB60604B5B6C5F4AF5
:1024000043F4804353645D4B5B6C03F48043FB6097
:10241000FB685B4AFB699B08023352F82330BB61BF
:10242000FB6903F003039B000F2202FA03F3DB4373
:10243000BA691340BB617B68524A93422BD07B68D8
:10244000514A934225D07B68504A93421FD07B6803
:102450004F4A934219D07B684E4A934213D07B680F
:102460004D4A93420DD07B684C4A934207D07B681B
:102470004B4A934201D107230EE008230CE00623C8
:102480000AE0052308E0042306E0032304E0022316
:1024900002E0012300E00023FA6902F00302920047
:1024A0009340BA691343BB613549FB699B0802330A
:1024B000BA6941F823203B4B9B68BB613B69DB4316
:1024C000BA691340BB613B685B6803F48013002B5F
:1024D00003D0BA693B691343BB61324ABB6993605D
:1024E000304BDB68BB613B69DB43BA691340BB61BE
:1024F0003B685B6803F40013002B03D0BA693B69A7
:102500001343BB61274ABB69D360264B5B68BB6141
:102510003B69DB43BA691340BB613B685B6803F40A
:102520000033002B03D0BA693B691343BB611D4ADA
:10253000BB6953601B4B1B68BB613B69DB43BA69DA
:102540001340BB613B685B6803F48033002B03D00E
:10255000BA693B691343BB61124ABB691360FB69EB
:102560000133FB61FB690F2B7FF690AE00BF00BF0C
:102570002437BD465DF8047B704700BF0038024039
:102580000038014000000240000402400008024000
:10259000000C0240001002400014024000180240EB
:1025A000001C0240003C014080B483B000AF786062
:1025B0000B467B8013467B707B78002B03D07A8898
:1025C0007B689A6103E07B881A047B689A6100BF8C
:1025D0000C37BD465DF8047B7047000080B485B0C1
:1025E00000AF78607B6803F00703FB600C4BDB688F
:1025F000BB60BA684FF6FF031340BB60FB681A026A
:10260000BB68134343F0BF6343F40033BB60044A29
:10261000BB68D36000BF1437BD465DF8047B7047CC
:1026200000ED00E080B400AF044BDB681B0A03F050
:1026300007031846BD465DF8047B704700ED00E0D7
:1026400080B483B000AF0346FB7197F90730002BCD
:102650000BDBFB7903F01F02074997F907305B0991
:10266000012000FA02F241F8232000BF0C37BD46DA
:102670005DF8047B704700BF00E100E080B483B0E8
:1026800000AF03463960FB7197F90730002B0ADB76
:102690003B68DAB20C4997F907301201D2B20B4409
:1026A00083F800230AE03B68DAB20849FB7903F0BB
:1026B0000F03043B1201D2B20B441A7600BF0C3751
:1026C000BD465DF8047B704700E100E000ED00E0EE
:1026D00080B489B000AFF860B9607A60FB6803F03D
:1026E0000703FB61FB69C3F10703042B28BF042325
:1026F000BB61FB690433062B02D9FB69033B00E095
:1027000000237B614FF0FF32BB6902FA03F3DA4327
:10271000BB681A407B699A404FF0FF317B6901FA30
:1027200003F3D9437B680B40134318462437BD4657
:102730005DF8047B704780B582B000AF7860786840
:10274000FFF74CFF00BF0837BD4680BD80B586B09F
:1027500000AF0346B9607A60FB7300237B61FFF72B
:1027600061FF78617A68B9687869FFF7B1FF02465E
:1027700097F90F3011461846FFF780FF00BF183752
:10278000BD4680BD80B582B000AF0346FB7197F9AE
:1027900007301846FFF754FF00BF0837BD4680BD1D
:1027A00080B500AF0E4B1B680D4A43F400731360F5
:1027B0000B4B1B680A4A43F480631360084B1B6889
:1027C000074A43F4807313600320FFF7B4FF0F2020
:1027D00005F000FB05F0D2FA0023184680BD00BFCB
:1027E000003C024080B400AF064B1B781A46064BF3
:1027F0001B681344044A136000BFBD465DF8047BA8
:10280000704700BF08000020CC01002080B400AF5A
:10281000034B1B681846BD465DF8047B704700BF3C
:10282000CC01002080B584B000AF7860FFF7EEFFE8
:10283000B8607B68FB60FB68B3F1FF3F05D00A4BD3
:102840001B781A46FB681344FB6000BFFFF7DEFFEE
:102850000246BB68D31AFA689A42F7D800BF00BF95
:102860001037BD4680BD00BF0800002080B584B091
:1028700000AF78607B68002B01D10123EDE07B681D
:1028800093F82030DBB2002B02D1786804F0CEFB45
:102890007B681B681A687B681B6842F001021A603B
:1028A000FFF7B4FFF86012E0FFF7B0FF0246FB68E5
:1028B000D31A0A2B0BD97B685B6A43F400327B681E
:1028C0005A627B68052283F820200123C5E07B68DB
:1028D0001B685B6803F00103002BE5D07B681B6875
:1028E0001A687B681B6822F002021A60FFF78EFFED
:1028F000F86012E0FFF78AFF0246FB68D31A0A2B42
:102900000BD97B685B6A43F400327B685A627B6850
:10291000052283F8202001239FE07B681B685B6809
:1029200003F00203002BE5D17B681B7E012B08D14D
:102930007B681B681A687B681B6842F080021A601B
:1029400007E07B681B681A687B681B6822F08002BE
:102950001A607B685B7E012B08D17B681B681A6854
:102960007B681B6842F040021A6007E07B681B68C6
:102970001A687B681B6822F040021A607B689B7EA5
:10298000012B08D17B681B681A687B681B6842F0C2
:1029900020021A6007E07B681B681A687B681B6866
:1029A00022F020021A607B68DB7E012B08D17B6855
:1029B0001B681A687B681B6822F010021A6007E027
:1029C0007B681B681A687B681B6842F010021A60FB
:1029D0007B681B7F012B08D17B681B681A687B68AA
:1029E0001B6842F008021A6007E07B681B681A68DF
:1029F0007B681B6822F008021A607B685B7F012BF2
:102A000008D17B681B681A687B681B6842F0040267
:102A10001A6007E07B681B681A687B681B6822F0F5
:102A200004021A607B689A687B68DB681A437B68DB
:102A30001B691A437B685B6942EA03017B685B6838
:102A40005A1E7B681B680A43DA617B6800225A625F
:102A50007B68012283F82020002318461037BD46EA
:102A600080BD80B489B000AFF860B9607A603B6027
:102A7000FB6893F82030FB77FB681B689B68BB61A1
:102A8000FB7F012B03D0FB7F022B40F0AD80BB69A5
:102A900003F08063002B0AD1BB6903F00063002BB5
:102AA00005D1BB6903F08053002B00F09580BB6912
:102AB0001B0E03F003037B6101227B699A403B6894
:102AC0001A60BB689B68002B0DD1BB681B685A0558
:102AD000BB68DB68F96809681A437B6918331B0116
:102AE0000B441A600FE0BB685B68DA00BB689B6848
:102AF0001A43BB68DB68F96809681A437B691833B5
:102B00001B010B441A60FB681968BB681A697B6972
:102B100018331B010B4404331A60BB681B7D012B67
:102B200011D1FB681A687B6918331B011344043305
:102B30001B68FA68116843F480727B6918331B01C3
:102B40000B4404331A607B6807331B781A067B68D2
:102B500006331B781B041A437B6805331B781B0262
:102B600013437A68043212781046FA68116843EA0F
:102B700000027B691B010B4403F5C6731A607B6876
:102B800003331B781A067B6802331B781B041A4335
:102B90007B6801331B781B0213437A681278104656
:102BA000FA68116843EA00027B691B010B4403F5D4
:102BB000C4731A60FB681A687B6918331B011344DD
:102BC0001B68FA68116843F001027B6918331B0126
:102BD0000B441A6000230EE0FB685B6A43F40012AA
:102BE000FB685A62012306E0FB685B6A43F48022BB
:102BF000FB685A62012318462437BD465DF8047B02
:102C0000704780B485B000AF78600023FB607B68BC
:102C100093F82030FB72FB7A012B02D0FB7A022B57
:102C20001DD17B681B689B6803F08063002B02D07A
:102C3000FB680133FB607B681B689B6803F00063E3
:102C4000002B02D0FB680133FB607B681B689B682C
:102C500003F08053002B02D0FB680133FB60FB685C
:102C600018461437BD465DF8047B704780B487B0C2
:102C700000AFF860B9607A603B60FB6893F8203081
:102C8000FB75FB7D012B03D0FB7D022B40F0038104
:102C9000BB68002B0ED1FB681B68DB6803F00303E5
:102CA000002B16D1FB685B6A43F40012FB685A6282
:102CB0000123F7E0FB681B681B6903F00303002B8B
:102CC00007D1FB685B6A43F40012FB685A62012378
:102CD000E8E0FB681A68BB681B331B0113441B68E0
:102CE00003F004027B689A607B689B68002B0CD120
:102CF000FB681A68BB681B331B0113441B685B0D20
:102D0000C3F30A027B681A600BE0FB681A68BB68B1
:102D10001B331B0113441B68DB0823F060427B68F4
:102D20005A60FB681A68BB681B331B0113441B689D
:102D300003F002027B68DA60FB681A68BB681B3329
:102D40001B01134404331B6803F00803002B03D05A
:102D50007B6808221A610BE0FB681A68BB681B33AA
:102D60001B01134404331B6803F00F027B681A61D4
:102D7000FB681A68BB681B331B01134404331B68D0
:102D80001B0ADAB27B689A61FB681A68BB681B335E
:102D90001B01134404331B681B0C9AB27B685A61F5
:102DA000FB681A68BB681B01134403F5DC731B68DE
:102DB000DAB23B681A70FB681A68BB681B011344DF
:102DC00003F5DC731B681A0A3B680133D2B21A7030
:102DD000FB681A68BB681B01134403F5DC731B68AE
:102DE0001A0C3B680233D2B21A70FB681A68BB68CF
:102DF0001B01134403F5DC731B681A0E3B68033395
:102E0000D2B21A70FB681A68BB681B01134403F541
:102E1000DE731A683B680433D2B21A70FB681A6812
:102E2000BB681B01134403F5DE731B681A0A3B6879
:102E30000533D2B21A70FB681A68BB681B011344D1
:102E400003F5DE731B681A0C3B680633D2B21A70A6
:102E5000FB681A68BB681B01134403F5DE731B682B
:102E60001A0E3B680733D2B21A70BB68002B08D128
:102E7000FB681B68DA68FB681B6842F02002DA60B6
:102E800007E0FB681B681A69FB681B6842F02002B8
:102E90001A61002306E0FB685B6A43F48022FB684A
:102EA0005A62012318461C37BD465DF8047B704703
:102EB00080B485B000AF786039600023FB607B6828
:102EC00093F82030FB72FB7A012B02D0FB7A022BA5
:102ED0000FD13B68002B06D17B681B68DB6803F0D1
:102EE0000303FB6005E07B681B681B6903F00303B9
:102EF000FB60FB6818461437BD465DF8047B7047DD
:102F000080B58AB000AF786000237B627B681B6865
:102F10005B693B627B681B685B68FB617B681B6865
:102F20009B68BB617B681B68DB687B617B681B6897
:102F30001B693B617B681B689B69FB603B6A03F014
:102F40000103002B7CD0BB6903F00103002B23D0CD
:102F50007B681B6801229A60BB6903F00203002BA7
:102F600003D0786800F083F916E0BB6903F004032E
:102F7000002B04D07B6A43F400637B620CE0BB69E6
:102F800003F00803002B04D07B6A43F480537B6278
:102F900002E0786800F089F9BB6903F48073002BC4
:102FA00024D07B681B684FF480729A60BB6903F47D
:102FB0000073002B03D0786800F063F916E0BB695A
:102FC00003F48063002B04D07B6A43F400537B62DC
:102FD0000CE0BB6903F40063002B04D07B6A43F46C
:102FE00080437B6202E0786800F069F9BB6903F412
:102FF0008033002B24D07B681B684FF480329A60AA
:10300000BB6903F40033002B03D0786800F043F968
:1030100016E0BB6903F48023002B04D07B6A43F4E1
:1030200000437B620CE0BB6903F40023002B04D057
:103030007B6A43F480337B6202E0786800F049F9F0
:103040003B6A03F00803002B0CD07B6903F01003EC
:10305000002B07D07B6A43F400737B627B681B689C
:103060001022DA603B6A03F00403002B0BD07B696B
:1030700003F00803002B06D07B681B680822DA6087
:10308000786800F030F93B6A03F00203002B09D0A6
:103090007B681B68DB6803F00303002B02D07868B1
:1030A00004F0FCFF3B6A03F04003002B0CD03B69AB
:1030B00003F01003002B07D07B6A43F480637B622C
:1030C0007B681B6810221A613B6A03F02003002B07
:1030D0000BD03B6903F00803002B06D07B681B680C
:1030E00008221A61786800F008F93B6A03F01003BF
:1030F000002B09D07B681B681B6903F00303002BBE
:1031000002D0786804F0D6FF3B6A03F40033002B4A
:103110000BD0FB6903F01003002B06D07B681B6803
:1031200010225A60786800F0F2F83B6A03F48033AA
:10313000002B0BD0FB6903F00803002B06D07B6843
:103140001B6808225A60786800F0EBF83B6A03F4C9
:103150000043002B7BD0FB6903F00403002B72D0EB
:103160003B6A03F48073002B08D0FB6803F0010373
:10317000002B03D07B6A43F001037B623B6A03F4BC
:103180000073002B08D0FB6803F00203002B03D070
:103190007B6A43F002037B623B6A03F48063002B8B
:1031A00008D0FB6803F00403002B03D07B6A43F0D4
:1031B00004037B623B6A03F40063002B43D0FB688B
:1031C00003F07003002B3ED0FB6803F07003602B0C
:1031D0002BD0602B2ED8502B22D0502B2AD8402B0E
:1031E00019D0402B26D8302B10D0302B22D8102BC2
:1031F00002D0202B05D01DE07B6A43F008037B62E0
:1032000019E07B6A43F010037B6214E07B6A43F0B1
:1032100020037B620FE07B6A43F040037B620AE09D
:103220007B6A43F080037B6205E07B6A43F4807332
:103230007B6200E000BF7B681B689A697B681B6843
:1032400022F070029A617B681B6804225A607B6AD4
:10325000002B08D07B685A6A7B6A1A437B685A62E3
:10326000786800F068F800BF2837BD4680BD80B49C
:1032700083B000AF786000BF0C37BD465DF8047BBB
:10328000704780B483B000AF786000BF0C37BD4694
:103290005DF8047B704780B483B000AF786000BFF6
:1032A0000C37BD465DF8047B704780B483B000AF37
:1032B000786000BF0C37BD465DF8047B704780B472
:1032C00083B000AF786000BF0C37BD465DF8047B6B
:1032D000704780B483B000AF786000BF0C37BD4644
:1032E0005DF8047B704780B483B000AF786000BFA6
:1032F0000C37BD465DF8047B704780B483B000AFE7
:10330000786000BF0C37BD465DF8047B704780B421
:1033100083B000AF786000BF0C37BD465DF8047B1A
:10332000704780B483B000AF786000BF0C37BD46F3
:103330005DF8047B704780B483B000AF786000BF55
:103340000C37BD465DF8047B704780B582B000AF96
:1033500078607B68002B01D1012314E07B681B7926
:10336000DBB2002B05D17B6800225A71786803F02C
:10337000DFFE7B6802221A717B6800221A617B687B
:1033800001221A71002318460837BD4680BD80B45B
:1033900089B000AFF860B9607A600023FB77FB6802
:1033A000002B02D0BB68002B01D1012342E0FB6857
:1033B0005B79012B01D102233CE0FB6801225A71A9
:1033C000FB6802221A71FB681B681B68BB617B6883
:1033D00003F0100340F6FE7202FA03F3DB43BA690E
:1033E0001340BB61BB681A68BB685B6813437B61B1
:1033F0007B6803F010037A6902FA03F3BA69134396
:10340000BB61FB681B68BA691A60FB681B681968B6
:103410007B6803F01003C02202FA03F3DA43FB686F
:103420001B680A401A60FB6801221A71FB680022BF
:103430005A71FB7F18462437BD465DF8047B704700
:1034400080B584B000AF78607B68002B01D1012388
:103450002BE17B6893F83D30DBB2002B06D17B6813
:10346000002283F83C20786803F0D4FE7B68242295
:1034700083F83D207B681B681A687B681B6822F014
:1034800001021A607B681B681A687B681B6842F43B
:1034900000421A607B681B681A687B681B6822F40C
:1034A00000421A60FEF79EFEF8607B685B68814A06
:1034B000934207D8FB68804A934294BF01230023BC
:1034C000DBB206E0FB687D4A934294BF01230023F0
:1034D000DBB2002B01D00123E7E0FB68784AA2FBB6
:1034E00003239B0CBB607B681B685B6823F03F0178
:1034F0007B681B68BA680A435A607B681B681B6A52
:1035000023F03F017B685B686A4A934202D8BB683C
:10351000013309E0BB684FF4967202FB03F3694A7A
:10352000A2FB03239B0901337A6812680B431362E1
:103530007B681B68DB6923F44F4222F0FF027B6843
:103540005B685C498B4219D8FB68591E7B685B68D5
:103550005B00B1FBF3F3591C40F6FC730B40002BEE
:103560000AD0FB68591E7B685B685B00B1FBF3F314
:103570000133C3F30B0351E004234FE07B689B68E6
:10358000002B11D1FB68581E7B6859680B465B0005
:103590000B44B0FBF3F30133C3F30B03002B0CBF5D
:1035A00001230023DBB212E0FB68581E7B685968D8
:1035B0000B469B000B4499000B44B0FBF3F3013323
:1035C000C3F30B03002B0CBF01230023DBB2002B42
:1035D00001D0012322E07B689B68002B0ED1FB68A1
:1035E000581E7B6859680B465B000B44B0FBF3F335
:1035F0000133C3F30B0343F400430FE0FB68581E91
:103600007B6859680B469B000B4499000B44B0FB48
:10361000F3F30133C3F30B0343F4404379680968C0
:103620001343CB617B681B681B6823F0C0017B6878
:10363000DA697B681B6A1A437B681B680A431A6055
:103640007B681B689B6823F4034323F0FF037A68BD
:1036500011697A68D26811437A6812680B439360E3
:103660007B681B68DB6823F0FF017B685A697B6815
:103670009B691A437B681B680A43DA607B681B6896
:103680001A687B681B6842F001021A607B6800229E
:103690001A647B68202283F83D207B6800221A632D
:1036A0007B68002283F83E20002318461037BD4671
:1036B00080BD00BFA08601007F841E00FF083D0082
:1036C00083DE1B43D34D621080B582B000AF7860BB
:1036D0007B68002B01D101237BE07B685B6A002BB8
:1036E00008D17B685B68B3F5827F09D07B680022D4
:1036F000DA6105E07B6800221A617B6800225A616A
:103700007B6800229A627B6893F85130DBB2002B11
:1037100006D17B68002283F85020786803F01AFEF7
:103720007B68022283F851207B681B681A687B68DB
:103730001B6822F040021A607B685B6803F48272A7
:103740007B689B6803F404431A437B68DB6803F4DB
:1037500000631A437B681B6903F002031A437B680A
:103760005B6903F001031A437B689B6903F40073F0
:103770001A437B68DB6903F038031A437B681B6AD2
:1037800003F0800342EA03017B689B6A03F4005262
:103790007B681B680A431A607B689B691B0C03F0FB
:1037A00004017B685B6A03F010027B681B680A43B4
:1037B0005A607B681B68DA697B681B6822F40062C8
:1037C000DA617B6800225A657B68012283F8512008
:1037D000002318460837BD4680BD80B586B002AFCD
:1037E00078607B68002B01D1012301E17B681B68B5
:1037F000BB607B6893F89534DBB2002B06D17B6805
:10380000002283F89424786804F02EFA7B6803225F
:1038100083F89524BB68B3F1A04F02D17B680022E6
:103820009A717B681B68184600F04AF97B68186833
:103830007B681A7C8DF8002004330ECB00F0DCF896
:103840000346002B05D07B68022283F895240123D0
:10385000CEE07B681B680021184600F042F9034661
:10386000002B05D07B68022283F895240123BFE05A
:103870000023FB734AE0FA7B79681346DB001344AC
:103880009B000B44153301221A70FA7B79681346AA
:10389000DB0013449B000B441433FA7B1A70FA7B51
:1038A000FB7B98B279681346DB0013449B000B4402
:1038B0002E3302461A80FA7B79681346DB001344E4
:1038C0009B000B44183300221A70FA7B7968134668
:1038D000DB0013449B000B441C3300221A60FA7B6C
:1038E00079681346DB0013449B000B44203300220D
:1038F0001A60FA7B79681346DB0013449B000B4483
:10390000243300221A60FB7B0133FB737B681B7935
:10391000FA7B9A42AFD30023FB7344E0FA7B7968C9
:103920001346DB0013449B000B4403F25523002293
:103930001A70FA7B79681346DB0013449B000B4432
:1039400003F51573FA7B1A70FA7B79681346DB006E
:1039500013449B000B4403F5167300221A70FA7B84
:1039600079681346DB0013449B000B4403F517737F
:1039700000221A60FA7B79681346DB0013449B002F
:103980000B4403F5187300221A60FA7B796813461A
:10399000DB0013449B000B4403F5197300221A60EB
:1039A000FB7B0133FB737B681B79FA7B9A42B5D3AF
:1039B0007B6818687B681A7C8DF8002004330ECB76
:1039C00000F0DCF80346002B05D07B68022283F868
:1039D000952401230CE07B6800225A747B68012245
:1039E00083F895247B681B68184600F0A4FA00232E
:1039F00018461037BD4680BD84B080B584B000AF96
:103A0000786007F11C0080E80E0097F82130012B48
:103A100023D17B689B6B23F480327B689A637B683D
:103A2000DB6823F4840323F040037A68D3607B6867
:103A3000DB6823F440127B68DA6097F82830012BAA
:103A400005D17B68DB6843F480127B68DA607868B4
:103A500000F0A0FA0346FB731BE07B68DB6843F0D1
:103A600040027B68DA60786800F094FA0346FB73E2
:103A700097F82530002B06D17B689B6B43F480328E
:103A80007B689A6305E07B689B6B23F480327B68DC
:103A90009A63BB7F012B0BD17B689B6843F00602C6
:103AA0007B689A607B689B6843F020027B689A6021
:103AB000FB7B18461037BD46BDE8804004B0704718
:103AC00080B483B000AF78607B689B6823F001020C
:103AD0007B689A60002318460C37BD465DF8047B6E
:103AE000704780B584B000AF78600B46FB70002350
:103AF000FB607B68DB6823F0C0427B68DA60FB78A0
:103B0000012B15D17B68DB6843F000527B68DA60DB
:103B10000A20FEF787FEFB680A33FB60786800F036
:103B20002BFA0346012B1ED0FB68C72BF0D91AE0F5
:103B3000FB78002B15D17B68DB6843F080427B6803
:103B4000DA600A20FEF76EFEFB680A33FB607868D5
:103B500000F012FA0346002B05D0FB68C72BF0D902
:103B600001E0012305E0FB68C82B01D1012300E03F
:103B7000002318461037BD4680BD000084B080B5D4
:103B800086B000AF786007F1240080E80E000023C3
:103B9000FB757B68FB6000233B6109E07A683B6949
:103BA00040339B00134400225A603B6901333B6160
:103BB0003B690E2BF2D997F82E30002B1CD1FB68F5
:103BC00003F500635B68FA6802F5006243F00203E4
:103BD00053607B689B6B43F400127B689A637B683D
:103BE0009B6B23F400227B689A637B689B6B23F4B6
:103BF00080227B689A630BE07B689B6B23F4001246
:103C00007B689A637B689B6B43F400227B689A63B2
:103C1000FB6803F560631A460023136097F82930A8
:103C2000012B0DD197F82730002B04D100217868A3
:103C300000F068F908E00121786800F063F903E01A
:103C40000321786800F05EF91021786800F0FAF836
:103C50000346002B01D00123FB75786800F024F99E
:103C60000346002B01D00123FB75FB6803F50063BD
:103C70001A4600231361FB6803F500631A4600230C
:103C80005361FB6803F500631A460023D3610023E8
:103C90003B6143E03B695A01FB68134403F5106341
:103CA0001B6803F00043B3F1004F18D13B69002BB0
:103CB0000AD13B695A01FB68134403F510631A46A5
:103CC0004FF00063136013E03B695A01FB68134433
:103CD00003F510631A464FF09043136008E03B6908
:103CE0005A01FB68134403F510631A46002313605E
:103CF0003B695A01FB68134403F510631A4600231D
:103D000013613B695A01FB68134403F510631A46BB
:103D10004FF67F3393603B6901333B6197F8243062
:103D20001A463B699342B5D300233B6143E03B69AC
:103D30005A01FB68134403F530631B6803F000432A
:103D4000B3F1004F18D13B69002B0AD13B695A01EE
:103D5000FB68134403F530631A464FF000631360A9
:103D600013E03B695A01FB68134403F530631A46BC
:103D70004FF09043136008E03B695A01FB6813441D
:103D800003F530631A46002313603B695A01FB6850
:103D9000134403F530631A46002313613B695A014B
:103DA000FB68134403F530631A464FF67F33936084
:103DB0003B6901333B6197F824301A463B699342D3
:103DC000B5D3FB6803F500631B69FA6802F500626E
:103DD00023F4807313617B6800229A617B686FF023
:103DE00080425A6197F82630002B05D17B689B6989
:103DF00043F010027B689A617B689A69104B134309
:103E00007A68936197F82A30002B05D07B689B690C
:103E100043F008027B689A6197F82E30012B07D196
:103E20007B689B6943F0804343F004037A689361A5
:103E3000FB7D18461837BD46BDE8804004B070478A
:103E400000383C8080B485B000AF786039600023D2
:103E5000FB60FB680133FB60FB68B3F1706F01D955
:103E600003231BE07B681B69002BF2DA0023FB6055
:103E70003B689B0143F020027B681A61FB680133B9
:103E8000FB60FB68B3F1706F01D9032306E07B6828
:103E90001B6903F02003202BF0D0002318461437B1
:103EA000BD465DF8047B704780B485B000AF786094
:103EB0000023FB60FB680133FB60FB68B3F1706FAC
:103EC00001D9032318E07B681B69002BF2DA002379
:103ED000FB607B6810221A61FB680133FB60FB68A2
:103EE000B3F1706F01D9032306E07B681B6903F00F
:103EF0001003102BF0D0002318461437BD465DF890
:103F0000047B704780B485B000AF78600B46FB70CF
:103F10007B68FB60FB6803F500631A68FB78F9684F
:103F200001F5006113430B60002318461437BD46AA
:103F30005DF8047B704780B485B000AF78607B6823
:103F4000FB60FB6803F560631B68FA6802F560625A
:103F500023F003031360FB6803F500635B68FA68F2
:103F600002F5006243F00203536000231846143741
:103F7000BD465DF8047B704780B483B000AF7860C5
:103F80007B685B6903F0010318460C37BD465DF89A
:103F9000047B704780B485B000AF78600023FB607D
:103FA000FB680133FB60FB68B3F1706F01D9032339
:103FB00022E07B681B69002BF2DA0A23FB6002E037
:103FC000FB68013BFB60FB68002BF9D17B681B6938
:103FD00043F001027B681A61FB680133FB60FB68F8
:103FE000B3F1706F01D9032306E07B681B6903F00E
:103FF0000103012BF0D0002318461437BD465DF8AD
:10400000047B704780B483B000AF78607B6803F1B5
:1040100008027B685A607B684FF0FF329A607B68C9
:1040200003F108027B68DA607B6803F108027B68B1
:104030001A617B6800221A6000BF0C37BD465DF82C
:10404000047B704780B483B000AF78607B68002247
:104050001A6100BF0C37BD465DF8047B704780B421
:1040600085B000AF786039607B685B68FB603B6857
:10407000FA685A60FB689A683B689A60FB689B68BC
:104080003A685A60FB683A689A603B687A681A61D5
:104090007B681B685A1C7B681A6000BF1437BD46DA
:1040A0005DF8047B704780B485B000AF78603960FC
:1040B0003B681B68BB60BB68B3F1FF3F03D17B6803
:1040C0001B69FB600CE07B680833FB6002E0FB6867
:1040D0005B68FB60FB685B681B68BA689A42F6D253
:1040E000FB685A683B685A603B685B683A689A604C
:1040F0003B68FA689A60FB683A685A603B687A687D
:104100001A617B681B685A1C7B681A6000BF1437F1
:10411000BD465DF8047B704780B485B000AF786021
:104120007B681B69FB607B685B687A6892689A6051
:104130007B689B687A6852685A60FB685B687A683B
:104140009A4203D17B689A68FB685A607B680022B8
:104150001A61FB681B685A1EFB681A60FB681B68C3
:1041600018461437BD465DF8047B704780B584B0AF
:1041700000AF786039607B68FB60FB68002B0BD177
:104180004FF0500383F31188BFF36F8FBFF34F8F4E
:10419000BB6000BF00BFFDE702F0D6FBFB681A68FA
:1041A000FB68DB6BF968096C01FB03F31A44FB68DD
:1041B0009A60FB6800229A63FB681A68FB685A6081
:1041C000FB681A68FB68DB6B013BF968096C01FB53
:1041D00003F31A44FB68DA60FB68FF2283F844208B
:1041E000FB68FF2283F845203B68002B14D1FB6855
:1041F0001B69002B1AD0FB681033184601F01AF91E
:104200000346002B12D00D4B4FF080521A60BFF3C3
:104210004F8FBFF36F8F09E0FB6810331846FFF72D
:10422000F1FEFB6824331846FFF7ECFE02F0BEFBFC
:10423000012318461037BD4680BD00BF04ED00E0E5
:1042400080B58EB002AFF860B9607A603B60FB6801
:10425000002B0BD14FF0500383F31188BFF36F8F06
:10426000BFF34F8FBB6200BF00BFFDE73B68002B71
:104270000BD14FF0500383F31188BFF36F8FBFF35F
:104280004F8F7B6200BF00BFFDE77B68002B02D031
:10429000BB68002B01D0012300E00023002B0BD1D1
:1042A0004FF0500383F31188BFF36F8FBFF34F8F2D
:1042B0003B6200BF00BFFDE77B68002B02D1BB68FB
:1042C000002B01D1012300E00023002B0BD14FF084
:1042D000500383F31188BFF36F8FBFF34F8FFB61E0
:1042E00000BF00BFFDE750237B617B69502B0BD0E3
:1042F0004FF0500383F31188BFF36F8FBFF34F8FDD
:10430000BB6100BF00BFFDE77B693B68FB62FB6AE6
:10431000002B0DD0FB6A012283F8462097F8382045
:10432000FB6A009313467A68B968F86800F005F8EC
:10433000FB6A18463037BD4680BD80B584B000AFFB
:10434000F860B9607A60FB70BB68002B03D1BB6971
:10435000BA691A6002E0BB697A681A60BB69FA68D8
:10436000DA63BB69BA681A640121B869FFF7FEFE17
:10437000BB69FA7883F84C2000BF1037BD4680BD7A
:1043800080B58EB000AFF860B9607A603B60002302
:104390007B63FB683B633B6B002B0BD14FF05003FF
:1043A00083F31188BFF36F8FBFF34F8FBB6200BFE2
:1043B00000BFFDE7BB68002B03D13B6B1B6C002BE0
:1043C00001D1012300E00023002B0BD14FF050035B
:1043D00083F31188BFF36F8FBFF34F8F7B6200BFF2
:1043E00000BFFDE73B68022B03D13B6BDB6B012B6E
:1043F00001D1012300E00023002B0BD14FF050032B
:1044000083F31188BFF36F8FBFF34F8F3B6200BF01
:1044100000BFFDE701F0CEF90346002B02D17B6817
:10442000002B01D1012300E00023002B0BD14FF022
:10443000500383F31188BFF36F8FBFF34F8FFB617E
:1044400000BF00BFFDE702F07FFA3B6B9A6B3B6B4E
:10445000DB6B9A4202D33B68022B29D13A68B968D8
:10446000386B00F00FFAF8623B6B5B6A002B10D0E0
:104470003B6B2433184600F0DDFF0346002B13D0BE
:104480003F4B4FF080521A60BFF34F8FBFF36F8FD7
:104490000AE0FB6A002B07D0394B4FF080521A60BC
:1044A000BFF34F8FBFF36F8F02F080FA012363E0F9
:1044B0007B68002B03D102F079FA00235CE07B6B70
:1044C000002B06D107F11403184601F017F8012359
:1044D0007B6302F06BFA00F087FD02F035FA3B6B6C
:1044E00093F844305BB2B3F1FF3F03D13B6B002242
:1044F00083F844203B6B93F845305BB2B3F1FF3F48
:1045000003D13B6B002283F8452002F04FFA3A1D9D
:1045100007F114031146184601F006F80346002B74
:1045200024D1386B00F0A6FA0346002B18D03B6B61
:1045300010337A681146184600F02AFF386B00F0F5
:1045400031FA00F05FFD0346002B7FF47CAF0C4B8B
:104550004FF080521A60BFF34F8FBFF36F8F72E737
:10456000386B00F01FFA00F04DFD6CE7386B00F07F
:1045700019FA00F047FD002318463837BD4680BDC4
:1045800004ED00E080B590B000AFF860B9607A60EB
:104590003B60FB68BB63BB6B002B0BD14FF0500340
:1045A00083F31188BFF36F8FBFF34F8FBB6200BFE0
:1045B00000BFFDE7BB68002B03D1BB6B1B6C002B5E
:1045C00001D1012300E00023002B0BD14FF0500359
:1045D00083F31188BFF36F8FBFF34F8F7B6200BFF0
:1045E00000BFFDE73B68022B03D1BB6BDB6B012BEC
:1045F00001D1012300E00023002B0BD14FF0500329
:1046000083F31188BFF36F8FBFF34F8F3B6200BFFF
:1046100000BFFDE702F078FAEFF311824FF050038C
:1046200083F31188BFF36F8FBFF34F8FFA61BB61C4
:10463000FB697B63BB6B9A6BBB6BDB6B9A4202D3F0
:104640003B68022B2FD1BB6B93F8453087F8333092
:10465000BB6B9B6BFB623A68B968B86B00F012F9F0
:1046600097F93330B3F1FF3F12D1BB6B5B6A002B7C
:1046700016D0BB6B2433184600F0DCFE0346002B3B
:104680000ED07B68002B0BD07B6801221A6007E0FC
:1046900097F833300133DBB25AB2BB6B83F8452055
:1046A0000123FB6301E00023FB637B6B7B617B6980
:1046B00083F3118800BFFB6B18464037BD4680BDB1
:1046C00080B58CB000AFF860B9607A600023FB62FF
:1046D000FB68BB62BB6A002B0BD14FF0500383F326
:1046E0001188BFF36F8FBFF34F8F3B6200BF00BFD6
:1046F000FDE7BB68002B03D1BB6A1B6C002B01D10B
:10470000012300E00023002B0BD14FF0500383F373
:104710001188BFF36F8FBFF34F8FFB6100BF00BFE6
:10472000FDE701F047F80346002B02D17B68002B20
:1047300001D1012300E00023002B0BD14FF05003E7
:1047400083F31188BFF36F8FBFF34F8FBB6100BF3F
:1047500000BFFDE702F0F8F8BB6A9B6B7B627B6AE7
:10476000002B1FD0B968B86A00F0F6F87B6A5A1EB1
:10477000BB6A9A63BB6A1B69002B0FD0BB6A1033FC
:10478000184600F057FE0346002B07D03C4B4FF075
:1047900080521A60BFF34F8FBFF36F8F02F006F99C
:1047A000012369E07B68002B03D102F0FFF80023AE
:1047B00062E0FB6A002B06D107F11003184600F0F7
:1047C0009DFE0123FB6202F0F1F800F00DFC02F007
:1047D000BBF8BB6A93F844305BB2B3F1FF3F03D13F
:1047E000BB6A002283F84420BB6A93F845305BB271
:1047F000B3F1FF3F03D1BB6A002283F8452002F0EA
:10480000D5F83A1D07F110031146184600F08CFE4A
:104810000346002B23D1B86A00F016F90346002B9B
:1048200017D0BB6A24337A681146184600F0B0FDF1
:10483000B86A00F0B7F800F0E5FB0346002B89D119
:104840000F4B4FF080521A60BFF34F8FBFF36F8F43
:1048500080E7B86A00F0A6F800F0D4FB7AE7B86AFF
:1048600000F0A0F800F0CEFBB86A00F0EDF80346C7
:10487000002B3FF46FAF002318463037BD4680BD94
:1048800004ED00E080B586B000AFF860B9607A60F2
:1048900000237B61FB689B6B3B61FB681B6C002BFF
:1048A0000DD1FB681B68002B4DD1FB689B68184637
:1048B00000F09EFF7861FB6800229A6043E07B680D
:1048C000002B19D1FB685868FB681B6C1A46B96845
:1048D000FBF7F2FCFB685A68FB681B6C1A44FB6828
:1048E0005A60FB685A68FB689B689A422BD3FB6846
:1048F0001A68FB685A6026E0FB68D868FB681B6C86
:104900001A46B968FBF7D8FCFB68DA68FB681B6CD1
:104910005B421A44FB68DA60FB68DA68FB681B6874
:104920009A4207D2FB689A68FB681B6C5B421A4488
:10493000FB68DA607B68022B05D13B69002B02D053
:104940003B69013B3B613B695A1CFB689A637B698D
:1049500018461837BD4680BD80B582B000AF78607C
:1049600039607B681B6C002B18D07B68DA687B6829
:104970001B6C1A447B68DA607B68DA687B689B682A
:104980009A4203D37B681A687B68DA607B68D968CF
:104990007B681B6C1A463868FBF78EFC00BF083733
:1049A000BD4680BD80B584B000AF786001F0CCFF1B
:1049B0007B6893F84530FB7311E07B685B6A002BE2
:1049C00012D07B682433184600F034FD0346002BD8
:1049D00001D000F00DFEFB7B013BDBB2FB7397F9CE
:1049E0000F30002BE9DC00E000BF7B68FF2283F87A
:1049F000452001F0DBFF01F0A7FF7B6893F844300E
:104A0000BB7311E07B681B69002B12D07B681033ED
:104A1000184600F00FFD0346002B01D000F0E8FD22
:104A2000BB7B013BDBB2BB7397F90E30002BE9DC9B
:104A300000E000BF7B68FF2283F8442001F0B6FF4E
:104A400000BF1037BD4680BD80B584B000AF786030
:104A500001F07AFF7B689B6B002B02D10123FB6086
:104A600001E00023FB6001F0A1FFFB68184610374E
:104A7000BD4680BD80B584B000AF786001F064FFB2
:104A80007B689A6B7B68DB6B9A4202D10123FB60E7
:104A900001E00023FB6001F089FFFB681846103736
:104AA000BD4680BD80B485B000AF7860396000231A
:104AB000FB6014E00F4AFB6852F83330002B0BD137
:104AC0000C49FB683A6841F833200A4AFB68DB006E
:104AD00013447A685A6006E0FB680133FB60FB68A8
:104AE000072BE7D900BF00BF1437BD465DF8047B34
:104AF000704700BFD001002080B586B000AFF860DD
:104B0000B9607A60FB687B6101F01EFF7B6993F8F6
:104B100044305BB2B3F1FF3F03D17B69002283F8DD
:104B200044207B6993F845305BB2B3F1FF3F03D17A
:104B30007B69002283F8452001F038FF7B699B6B7D
:104B4000002B06D17B6924337A68B968184600F0D7
:104B500045FC7869FFF726FF00BF1837BD4680BDCA
:104B600080B58EB004AFF860B9607A603B607B6B53
:104B7000002B0BD14FF0500383F31188BFF36F8FDD
:104B8000BFF34F8F3B6200BF00BFFDE7BB6B002B45
:104B90000BD14FF0500383F31188BFF36F8FBFF336
:104BA0004F8FFB6100BF00BFFDE75C233B613B69AA
:104BB0005C2B0BD04FF0500383F31188BFF36F8F42
:104BC000BFF34F8FBB6100BF00BFFDE73B69BB6B0D
:104BD000002B1ED07B6B002B1BD0BB6B7B627B6AD8
:104BE0007A6B1A637B6A022283F8592000230393AD
:104BF0007B6A029307F1140301933B6B00933B68BC
:104C00007A68B968F86800F050F8786A00F0DEF861
:104C100001E000237B617B6918462837BD4680BDD3
:104C200080B58CB004AFF860B9603B601346FB8080
:104C3000FB889B00184601F069FB78617B69002BBB
:104C40000ED05C2001F062FBF861FB69002B03D001
:104C5000FB697A691A6305E0786901F025FC01E0D7
:104C60000023FB61FB69002B17D0FB69002283F84E
:104C70005920FA8800230393FB690293FB6A01938E
:104C8000BB6A00933B68B968F86800F00EF8F869F1
:104C900000F09CF80123BB6102E04FF0FF33BB61E1
:104CA000BB6918462037BD4680BD80B588B000AFCF
:104CB000F860B9607A603B603B6B186B7B689B0067
:104CC0001A46A521FBF77EFA3B6B1A6B7B6803F152
:104CD0008043013B9B001344BB61BB6923F0070386
:104CE000BB61BB6903F00703002B0BD04FF05003EF
:104CF00083F31188BFF36F8FBFF34F8F7B6100BFCA
:104D000000BFFDE7BB68002B1FD00023FB6112E052
:104D1000BA68FB69134419783A6BFB69134434335E
:104D20000A461A70BA68FB6913441B78002B06D038
:104D3000FB690133FB61FB690F2BE9D900E000BF80
:104D40003B6B002283F8432003E03B6B002283F897
:104D50003420BB6A372B01D93723BB623B6BBA6A5D
:104D6000DA623B6BBA6ADA643B6B00221A653B6B12
:104D700004331846FFF766F93B6B18331846FFF704
:104D800061F93B6B3A6B1A61BB6AC3F138023B6B4A
:104D90009A613B6B3A6B5A623B6B00225A653B6BE4
:104DA000002283F858203A68F968B86901F09CFC41
:104DB00002463B6B1A60FB6A002B02D0FB6A3A6B1F
:104DC0001A6000BF2037BD4680BD000080B582B0AC
:104DD00000AF786001F0B8FD2D4B1B6801332C4A01
:104DE00013602C4B1B68002B09D12A4A7B68136087
:104DF000274B1B68012B10D100F01EFC0DE0264B49
:104E00001B68002B09D1234B1B68DA6A7B68DB6ABD
:104E10009A4202D81F4A7B681360204B1B680133FB
:104E20001E4A13601D4B1A687B685A647B68DA6AF5
:104E30001B4B1B689A4203D97B68DB6A184A1360D4
:104E40007B68DA6A13469B0013449B00154A1A4498
:104E50007B68043319461046FFF701F901F0A6FDFF
:104E60000D4B1B68002B0ED00A4B1B68DA6A7B685F
:104E7000DB6A9A4207D20C4B4FF080521A60BFF3A4
:104E80004F8FBFF36F8F00BF0837BD4680BD00BF97
:104E9000E406002010020020F00600200007002099
:104EA000EC0600201402002004ED00E080B584B080
:104EB00000AF78600023FB607B68002B18D0144B98
:104EC0001B68002B0BD04FF0500383F31188BFF306
:104ED0006F8FBFF34F8FBB6000BF00BFFDE700F0D7
:104EE00083F80021786800F0F3FC00F08BF8F8609C
:104EF000FB68002B07D1074B4FF080521A60BFF3BD
:104F00004F8FBFF36F8F00BF1037BD4680BD00BF0E
:104F10000C07002004ED00E080B58AB004AF002348
:104F2000BB6000237B603A46391D07F10803184631
:104F300001F0B8F939687B68BA68029201930023DE
:104F4000009300230A4622492248FFF709FE034640
:104F5000214A1360204B1B68002B02D001237B6188
:104F600001E000237B617B69012B02D100F004FD8D
:104F700078617B69012B16D14FF0500383F31188C0
:104F8000BFF36F8FBFF34F8F3B6100BF134B4FF0E9
:104F9000FF321A60124B01221A60124B00221A6073
:104FA00001F02EFC0FE07B69B3F1FF3F0BD14FF016
:104FB000500383F31188BFF36F8FBFF34F8FFB60F4
:104FC00000BF00BFFDE700BF1837BD4680BD00BF72
:104FD000F88F000809560008080700200407002081
:104FE000F0060020E806002080B400AF044B1B68E8
:104FF0000133034A136000BFBD465DF8047B704770
:105000000C07002080B584B000AF0023FB600023B4
:10501000BB60424B1B68002B0BD14FF0500383F356
:105020001188BFF36F8FBFF34F8F3B6000BF00BF8E
:10503000FDE701F089FC394B1B68013B374A1360DF
:10504000364B1B68002B62D1354B1B68002B5ED0A2
:105050002FE0344BDB68DB68FB60FB6818331846D5
:10506000FFF75AF8FB6804331846FFF755F8FB685A
:10507000DA6A2D4B1B689A4203D9FB68DB6A2A4A1D
:105080001360FB68DA6A13469B0013449B00274AAF
:105090001A44FB68043319461046FEF7E0FFFB682C
:1050A000DA6A234B1B68DB6A9A4202D3214B012246
:1050B0001A601C4B1B68002BCBD1FB68002B01D066
:1050C00000F058FB1C4B1B687B607B68002B10D0EA
:1050D00000F046F80346002B02D0164B01221A605E
:1050E0007B68013B7B607B68002BF1D1124B002277
:1050F0001A60104B1B68002B09D00123BB600F4BBB
:105100004FF080521A60BFF34F8FBFF36F8F01F0E3
:105110004DFCBB6818461037BD4680BD0C0700200B
:10512000E4060020A4060020EC0600201402002063
:1051300010020020F8060020F406002004ED00E034
:1051400080B483B000AF054B1B687B607B6818465A
:105150000C37BD465DF8047B704700BFE8060020B1
:1051600080B586B000AF00237B614F4B1B68002BDE
:1051700040F090804D4B1B6801333B614B4A3B69CB
:1051800013603B69002B21D1494B1B681B68002B26
:105190000BD04FF0500383F31188BFF36F8FBFF331
:1051A0004F8F3B6000BF00BFFDE7414B1B68FB60BA
:1051B000404B1B683E4A13603E4AFB6813603E4BFF
:1051C0001B6801333C4A136000F0D4FA3B4B1B6868
:1051D0003A699A4249D3364B1B681B68002B04D1AD
:1051E000364B4FF0FF321A603FE0314B1B68DB68F3
:1051F000DB68BB60BB685B687B603A697B689A422E
:1052000003D22E4A7B6813602FE0BB680433184634
:10521000FEF782FFBB689B6A002B04D0BB68183383
:105220001846FEF779FFBB68DA6A254B1B689A427D
:1052300003D9BB68DB6A224A1360BB68DA6A13468B
:105240009B0013449B001F4A1A44BB680433194651
:105250001046FEF704FFBB68DA6A1B4B1B68DB6A6B
:105260009A42B8D301237B61B5E7174B1B68DA6A12
:10527000144913469B0013449B000B441B68012BED
:1052800001D901237B61114B1B68002B07D001233F
:105290007B6104E00E4B1B6801330D4A13607B6990
:1052A00018461837BD4680BD0C070020E8060020D0
:1052B0009C060020A0060020FC0600200407002019
:1052C000EC0600201402002010020020F806002046
:1052D000F406002080B485B000AF284B1B68002B7B
:1052E00003D0274B01221A6042E0254B00221A60AE
:1052F000244B1B68FB6011E0FB68002B0BD14FF0C7
:10530000500383F31188BFF36F8FBFF34F8F7B6020
:1053100000BF00BFFDE7FB68013BFB601A49FA686C
:1053200013469B0013449B000B441B68002BE3D0E7
:10533000FA6813469B0013449B00134A1344BB6056
:10534000BB685B685A68BB685A60BB685A68BB68D0
:1053500008339A4204D1BB685B685A68BB685A60DC
:10536000BB685B68DB68094A1360064AFB68136028
:1053700000BF1437BD465DF8047B70470C07002062
:10538000F8060020EC060020140200201002002085
:1053900080B584B000AF786039607B68002B0BD19A
:1053A0004FF0500383F31188BFF36F8FBFF34F8F1C
:1053B000FB6000BF00BFFDE7074B1B6818331946B1
:1053C0007868FEF770FE0121386800F081FA00BFAE
:1053D0001037BD4680BD00BF1002002080B586B0EA
:1053E00000AFF860B9607A60FB68002B0BD14FF01A
:1053F000500383F31188BFF36F8FBFF34F8F7B612F
:1054000000BF00BFFDE70A4B1B6818331946F86858
:10541000FEF725FE7B68002B02D04FF0FF33BB6008
:105420007968B86800F054FA00BF1837BD4680BDEF
:105430001002002080B586B000AF78607B68DB6822
:10544000DB683B613B69002B0BD14FF0500383F3CA
:105450001188BFF36F8FBFF34F8FFB6000BF00BF9A
:10546000FDE73B6918331846FEF756FE1D4B1B68D7
:10547000002B1DD13B6904331846FEF74DFE3B69F6
:10548000DA6A194B1B689A4203D93B69DB6A164AF0
:1054900013603B69DA6A13469B0013449B00134A6E
:1054A0001A443B69043319461046FEF7D8FD05E05F
:1054B0003B69183319460E48FEF7D1FD3B69DA6A9D
:1054C0000C4B1B68DB6A9A4205D901237B610A4BAE
:1054D00001221A6001E000237B617B6918461837BE
:1054E000BD4680BD0C070020EC0600201402002001
:1054F000A406002010020020F806002080B483B02B
:1055000000AF7860064B1A687B681A60054B1A6812
:105510007B685A6000BF0C37BD465DF8047B70475E
:10552000FC060020E806002080B588B000AF786057
:1055300039607B68002B0BD14FF0500383F3118847
:10554000BFF36F8FBFF34F8F3B6100BF00BFFDE71D
:105550003B68002B0BD14FF0500383F31188BFF34E
:105560006F8FBFF34F8FFB6000BF00BFFDE701F0FF
:10557000EBF91D4B1B68BB617B685B68BA69D31A8A
:105580007B613B681B68B3F1FF3F02D10023FB61E5
:1055900023E07B681A68154B1B689A4207D07B682A
:1055A0005B68BA699A4202D30123FB6115E03B684C
:1055B0001B687A699A420BD23B681A687B69D21AD7
:1055C0003B681A607868FFF799FF0023FB6104E0ED
:1055D0003B6800221A600123FB6101F0E7F9FB69D7
:1055E00018462037BD4680BDE8060020FC06002096
:1055F00080B400AF034B01221A6000BFBD465DF8C6
:10560000047B7047F806002080B582B000AF786058
:1056100000F052F8064B1B68012BF9D9054B4FF0EF
:1056200080521A60BFF34F8FBFF36F8FF0E700BF58
:105630001402002004ED00E080B582B000AF00232A
:105640007B600CE07A6813469B0013449B00124A6F
:1056500013441846FEF7D6FC7B6801337B607B68F9
:10566000372BEFD90D48FEF7CDFC0D48FEF7CAFCED
:105670000C48FEF7C7FC0C48FEF7C4FC0B48FEF7CD
:10568000C1FC0B4B054A1A600A4B054A1A6000BF61
:105690000837BD4680BD00BF1402002074060020FC
:1056A00088060020A4060020B8060020D0060020AE
:1056B0009C060020A006002080B582B000AF19E053
:1056C00001F042F9104BDB68DB687B607B680433D8
:1056D0001846FEF721FD0D4B1B68013B0B4A13607A
:1056E0000B4B1B68013B0A4A136001F05FF97868B5
:1056F00000F010F8064B1B68002BE1D100BF00BF83
:105700000837BD4680BD00BFB8060020E406002073
:10571000CC06002080B584B000AF78607B6893F839
:105720005930002B08D17B681B6B184600F0BCFE7B
:10573000786800F0B9FE19E07B6893F85930012BC6
:1057400003D1786800F0B0FE10E07B6893F8593020
:10575000022B0BD04FF0500383F31188BFF36F8FF0
:10576000BFF34F8FFB6000BF00BFFDE700BF1037E6
:10577000BD4680BD80B483B000AF0C4B1B681B6876
:10578000002B04D10A4B4FF0FF321A6008E0074BA0
:105790001B68DB68DB687B607B685B68044A1360BE
:1057A00000BF0C37BD465DF8047B70479C060020A7
:1057B0000407002080B483B000AF0B4B1B68002BA4
:1057C00002D101237B6008E0084B1B68002B02D14B
:1057D00002237B6001E000237B607B6818460C3766
:1057E000BD465DF8047B7047F00600200C070020E2
:1057F00080B586B000AF78607B683B6100237B6139
:105800007B68002B58D02F4B1B683A699A420BD00B
:105810004FF0500383F31188BFF36F8FBFF34F8FA7
:10582000FB6000BF00BFFDE73B691B6D002B0BD188
:105830004FF0500383F31188BFF36F8FBFF34F8F87
:10584000BB6000BF00BFFDE73B691B6D5A1E3B6993
:105850001A653B69DA6A3B69DB6C9A422CD03B697A
:105860001B6D002B28D13B6904331846FEF754FC0E
:105870003B69DA6C3B69DA623B69DB6AC3F1380287
:105880003B699A613B69DA6A0F4B1B689A4203D9FC
:105890003B69DB6A0C4A13603B69DA6A13469B007A
:1058A00013449B00094A1A443B69043319461046C5
:1058B000FEF7D5FB01237B617B6918461837BD468F
:1058C00080BD00BF10020020EC0600201402002062
:1058D00080B584B000AF78603960214B1B68FB60F5
:1058E000204B1B6804331846FEF716FC7B68B3F1A7
:1058F000FF3F0AD13B68002B07D01A4B1B680433CB
:1059000019461948FEF7ABFB26E0FA687B6813449A
:10591000BB60144B1B68BA685A60BA68FB689A424D
:1059200009D2124B1A680F4B1B68043319461046F4
:10593000FEF7B9FB10E00E4B1A680A4B1B680433E4
:1059400019461046FEF7AFFB0A4B1B68BA689A422D
:1059500002D2084ABB68136000BF1037BD4680BD45
:10596000E806002010020020D0060020A00600203B
:105970009C0600200407002080B58AB004AF0023F5
:105980007B6100F013FB1D4B1B68002B21D0002313
:10599000FB600023BB603A1D07F1080107F10C030F
:1059A000184600F099FC7968BB68FA680292019386
:1059B0000223009300230A4611491248FFF7D0F84A
:1059C0000346114A1360104B1B68002B01D00123C2
:1059D0007B617B69002B0BD14FF0500383F311885F
:1059E000BFF36F8FBFF34F8F3B6100BF00BFFDE779
:1059F0007B6918461837BD4680BD00BF40070020B0
:105A000000900008455B00084407002080B58AB07C
:105A100000AFF860B9607A603B6000237B62FB688E
:105A2000002B0BD14FF0500383F31188BFF36F8F1E
:105A3000BFF34F8F3B6200BF00BFFDE7194B1B68F0
:105A4000002B2AD0BB683B617B687B61FB68BB6134
:105A5000BB68052B18DCFFF7ADFE0346022B09D10E
:105A6000104B186807F1100100233A6BFEF788FC11
:105A7000786212E00B4B186807F110010023002236
:105A8000FEF77EFC786208E0064B186807F110010B
:105A900000233A68FEF776FD78627B6A184628375D
:105AA000BD4680BD4007002080B588B002AF786059
:105AB0003960234B1B68DB68DB687B617B690433DF
:105AC0001846FEF729FB7B6993F8283003F004039E
:105AD000002B23D07B699A697B68D1187B683A6870
