:020000040800F2
:100000000000022039A4000801A2000809A200088B
:1000100011A2000819A2000821A200080000000097
:10002000000000000000000000000000B18C00088B
:1000300029A2000800000000018F0008798500084F
:1000400089A4000889A4000889A4000889A40008DC
:1000500089A4000889A4000889A4000889A40008CC
:1000600089A4000889A4000889A4000889A40008BC
:1000700089A4000889A4000889A4000889A40008AC
:1000800089A4000889A4000889A4000889A400089C
:1000900039A200084DA2000889A4000889A400081C
:1000A00089A4000889A4000889A4000889A400087C
:1000B00089A4000889A4000889A4000889A400086C
:1000C00089A4000889A4000889A4000889A400085C
:1000D00089A4000889A4000889A4000889A400084C
:1000E00089A4000889A4000889A4000889A400083C
:1000F00089A4000861A2000889A4000889A4000856
:1001000089A4000889A4000889A4000889A400081B
:1001100089A4000889A4000889A4000889A400080B
:1001200089A4000889A4000889A4000889A40008FB
:1001300089A4000889A4000889A4000889A40008EB
:1001400089A4000889A4000889A4000889A40008DB
:1001500089A4000889A4000889A4000889A40008CB
:1001600089A4000889A4000889A4000889A40008BB
:1001700089A4000889A4000889A4000800000000E0
:0801800089A4000889A400080D
:1001A00008B52DED028BB0EE408A00F0C3F9B4EE35
:1001B000488AF1EE10FAF0EE408A0AD6B0EE480A0C
:1001C00000F0A2F8F7EE007AB4EEE70AF1EE10FACA
:1001D00004DCB0EE680ABDEC028B08BD01F0B8FB90
:1001E000BDEC028B034621221A600248BDE808409C
:1001F00000F0CCB89022010808B52DED028BB0EECE
:10020000408A00F0BDFAB4EE488AF1EE10FAF0EE42
:10021000408A0AD6B0EE480A00F076F8F7EE007A87
:10022000B4EEE70AF1EE10FA04DCB0EE680ABDECB9
:10023000028B08BD01F08CFBBDEC028B0346212232
:100240001A600248BDE8084000F0A0B890220108FA
:1002500000F094BB08B52DED028BB0EE408A00F0A3
:100260009BF8B4EE488AF1EE10FA06D6DFED098A63
:10027000B4EEE88AF1EE10FA02D4BDEC028B08BDB0
:1002800001F066FB88EEA80ABDEC028B2123036017
:1002900008BD00BF0000000010EE103A184923F01E
:1002A00000428A421BD9B2F1FF4F02D330EE400A1E
:1002B000704700B583B0684600F006FC00F003000C
:1002C0000128DDED010A9DED000A0CD0022812D0B4
:1002D00070B1012000F0E6F803B05DF804FBDFED3B
:1002E000090A00F05DB800F0DDF8B1EE400AF3E76E
:1002F00000F056F8F0E700F053F8B1EE400AEBE7F3
:10030000D80F493F0000000010EE103A23F00043E0
:1003100000EE103A704700BF10EE103A194923F072
:1003200000428A421CD9B2F1FF4F02D330EE400A9C
:10033000704700B583B0684600F0C6FB00F00300CC
:100340000128DDED010A9DED000A0ED0022813D030
:1003500070B100F025F8B1EE400A03B05DF804FB7F
:10036000DFED090A002000F09DB800F019F8F4E76D
:10037000012000F097F8F0E7012000F093F8B1EECB
:10038000400AEAE7D80F493F000000009FED010A4C
:10039000704700BF0000C07FB1EEC00A704700BFC9
:1003A00010EE103A23F00043B3F1485F2CD2FDEE7B
:1003B000C07A17EE903A002B60D060EE007A9FED85
:1003C000317A9FED315ADFED315A9FED316ADFED21
:1003D000316AA7EE875A9FED307AE5EE275AA7EEED
:1003E000A56AA7EE867AE7EE876A67EEA66A60EEF0
:1003F000C00AB6EE007AE7EEA60AB7EE000AD7EE1C
:10040000870A30EE600A704760EE007A9FED1D7A31
:100410009FED1D5ADFED1D5A9FED1D6ADFED1D6A30
:100420001E4AA7EE875A93429FED1B7AE5EE275AA4
:10043000A5EEA76AA6EE277AE7EE276A66EEA76A18
:10044000D5D9174A934214D803F17F4307EE103AE7
:10045000B7EE006A36EE476A60EEC00AF6EE005A62
:1004600097EEA57AE7EEA60A37EE607A36EE470AEF
:100470007047B6EE076AB5EE027AEDE7B7EE000A0E
:10048000704700BF4ED747ADF6740F317CF293B47E
:10049000010DD037ABAA2A3D610BB6BA9999993EA6
:1004A0000000483F10EE103A23F00043B3F1485FDC
:1004B00004D2FDEEC07A17EE903A5BB360EE007A9C
:1004C0009FED157ADFED155A9FED156ADFED156A80
:1004D000E7EE875A9FED147AA5EEA76A20EE275A19
:1004E000E6EE276AA6EEA77A30B9DFED106AE7EEEE
:1004F000876AA6EE850A704727EE457AF6EE006A0F
:10050000A0EEA67ADFED0A6AD7EE270AE5EE260A04
:1005100030EE600A704700BFD3C92E2F342FD7B2F8
:100520001BEF3836010D50B98988083CABAA2ABEAA
:10053000ABAA2A3E08B510EE102A22F00043B3F110
:100540007E5F2DED028B12D00AD8B3F17C5F19D2F9
:10055000B3F10C5F6ED8BDEC028B9FED780A08BD3D
:1005600070EE407A87EEA70ABDEC028B08BDBDECA9
:10057000028B9FED730ADFED737A002AC8BFB0EEDD
:10058000670A08BD002AC0F29280F7EE008A38EEB2
:10059000C00AF6EE007A20EE278AB0EE480AFFF78E
:1005A000FBFEDFED697A9FED697A9FED696ADFED09
:1005B000695ADFED696AA8EE277ADFED687AA7EE5F
:1005C000086AE8EE257ADFED665A9FED667AE6EE78
:1005D000086AE7EE885ADFED647AA6EE887AE5EEDF
:1005E000887A10EE103A23F47F63B0EE476A23F066
:1005F0000F039FED5E7AF0EE676A07EE903AA6EE83
:10060000087AF0EE485AE7EEE75AE6EE888A30EECE
:10061000276A27EE087AC5EE866A87EE286ABDEC5F
:10062000028BB0EE667AA0EE067A37EE870A30EEDD
:10063000000A08BD20EE007ADFED437A9FED436AA1
:10064000DFED436A9FED435ADFED435AA7EE276A79
:10065000BDEC028BE6EE076ADFED407A9FED406A63
:10066000E7EE057AE6EE875AA7EE876A9FED3D5AD8
:10067000DFED3D7ADFED3D6AA5EE875AE6EE077ABB
:10068000E5EE076AF7EE005AE7EE875A26EE877A1C
:100690009FED376ADFED377AC7EE256AB0EE467A0E
:1006A000A0EE667A30EE470A37EEC00A08BDB7EE14
:1006B000007A30EE070AF6EE007A60EE277ADFED78
:1006C000226A9FED226ADFED224ADFED225A9FED7A
:1006D000225A9FED268AA7EEA66ADFED206AE6EE93
:1006E000274AE7EEA56ADFED1E5A9FED1E6AA4EECB
:1006F000A75AE6EEA75ADFED1C6AA5EE276AE5EEDB
:10070000A76AA6EE278AA6EEA77A28EE278AF0EE39
:10071000478AB0EE670AFFF73FFE88EE286A9FED32
:10072000167ADFED167AA0EE067AF0EE006A37EE62
:10073000007AE7EE667AB0EE670A15E7DB0FC93F8D
:10074000DB0F49400000000008EF1138047F4F3AEA
:10075000461124BD2EC69D3DA80A4E3E613330BFD2
:100760002D57014090B0A6BE39D119C0ABAA2A3E80
:100770006821A233DA0FC93F6821A2B3DA0F4940DA
:1007800038B510EE105A25F00044B4F17E5F2DED1F
:10079000048BF0EE407A00F0828079D8B4F17C5F6F
:1007A0000ED2B4F1485F80F094809FED647A30EE11
:1007B000077AF7EE006AB4EEE67AF1EE10FA64DC3E
:1007C000B0EE670AFFF7A0FDF7EE007A37EEC08AB9
:1007D000B6EE007A28EE078ADFED596A9FED597A66
:1007E0009FED596A9FED595ADFED595ADFED598A4D
:1007F000E8EE076A9FED587AA8EE067A9FED576AF1
:10080000A6EE885AA7EE086A9FED557ADFED556A85
:10081000E5EE085AA6EE087AE5EE886AE7EE087A71
:10082000E6EE888AB0EE480AB0EE679AFFF7B4FDAC
:100830004D4B9C4268EE888A3CD810EE103A23F467
:100840007F6323F00F0306EE903AA6EEE68A70EE81
:10085000267A88EE895AC8EE274A9FED447ADFED62
:10086000447AB0EE006AA4EEC67A30EE000AF0EEEA
:10087000675A90EE057AE6EEC65A37EE657A37EE9D
:10088000C70A002D01DCB1EE400ABDEC048B38BD77
:10089000BDEC048B70EE407A87EEA70A38BDBDEC44
:1008A000048B9FED320A9FED337A27EE800AA7EE84
:1008B000870A38BD88EE896A9FED2F7ADFED2D7AA1
:1008C000A0EE060AF0EE006AA0EE267A37EEC70A1E
:1008D000D7E720EE007ADFED1B6A9FED196ADFEDA6
:1008E0001B5A9FED195ADFED1A4AA7EE266ABDEC96
:1008F000048BE6EE075ADFED186A9FED186AE7EE03
:10090000056AE5EE874AA6EE876A9FED165ADFED87
:10091000145ADFED106AA4EE875AE6EE075AE5EEA8
:10092000076AB7EE006AA5EE876A26EE877AC7EEF9
:10093000066AE0EE267AB0EE670A38BDCAF249715F
:10094000047F4F3A08EF11382EC69D3D461124BD55
:10095000A80A4E3EABAA2A3E613330BF2D57014054
:1009600039D119C090B0A6BE9999793F2EBD3BB33D
:10097000DB0F493FDB0FC93F2EBD3B3310B582B0C3
:10098000CDED010A019B23F00042B2F1FF4FF0EEE2
:10099000407A30D810EE100A20F00041B1F1FF4F3C
:1009A00029D8B3F17E5F42D09C1704F0020444EAD8
:1009B000D07431B37AB3B2F1FF4F40D0B1F1FF4FF1
:1009C00029D0891AB1F1F45F4FEAE15234DA002BF1
:1009D00042DA3C3240DA9FED340A012C4ED0022C30
:1009E00043D064B19FED317ADFED317A30EE070A02
:1009F00030EE670A03E09DED017A37EE270A02B078
:100A000010BD022C10D09FED2B7A032C08BFB0EE46
:100A1000470A02B010BD9FED280ADFED287A0028B2
:100A2000B8BFB0EE670AEAE79FED210AE7E702B038
:100A3000BDE8104000F078B99FED1F0ACDE7B1F195
:100A4000FF4F04F1FF3420D0022C26D81C4B03EBBF
:100A5000840393ED030AD2E79DED017A87EE870ABE
:100A6000FFF752FC00F060F9B7E79FED107ADFED79
:100A7000107A30EE070A37EEC00AC0E710EE103ADF
:100A800003F1004300EE103AB9E7022C08D80C4BF2
:100A900003EB840393ED000AB1E79FED030AAEE791
:100AA0009FED080AABE700BF000000002EBDBB337E
:100AB000DB0F4940DB0F49C0DB0FC93FDB0FC9BF6C
:100AC00028150108DB0F493F70B510EE103A884A2F
:100AD00023F00044944286B0054671D9854A944279
:100AE0001E4624D823F00042002BDFED837A834991
:100AF00022F00F02B0EE407A40F3E0808A4270EEBE
:100B0000677A09BF9FED7E7ADFED7E6ADFED7E6A50
:100B100077EEC77A37EEE67A77EEC77A80ED007A1D
:100B200077EEE67AC0ED017A012006B070BD774A13
:100B3000944252D9B4F1FF4F48D2E215863AA4EB61
:100B4000C25307EE903ABDEEE77ADFED716AB8EE78
:100B5000C77A77EEC77A8DED037A67EEA67ABDEE97
:100B6000E77AB8EEC77A77EEC77A8DED047A67EE4A
:100B7000A67AF5EE407AF1EE10FACDED057A40F066
:100B80009880B5EE407AF1EE10FA0CBF01230223F3
:100B9000604901910221009103A8294600F094F9CF
:100BA000002EC2DA95ED007AD5ED017AB1EE477AE2
:100BB000F1EE677A85ED007AC5ED017A4042B4E73F
:100BC000002285ED000A42600020AEE770EE407A18
:100BD000C0ED017AC0ED007AF6E7FFF795FB9FEDD7
:100BE0004E7A9FED456AF6EE007AE0EE077A9FEDC9
:100BF000457AFDEEE77A17EE900AF8EEE76A1F28CD
:100C0000A6EEC60A66EE877AB1EE666A20DC434A33
:100C1000411E26F0004352F8212023F0FF039342A7
:100C200016D030EE677A30EE470A002E30EE670AB3
:100C300085ED007A85ED010ABFF677AFB1EE477A10
:100C4000B1EE400A85ED007A85ED010A40426CE77D
:100C500030EE677AE21517EE103AC3F3C753C3EBD1
:100C6000D453082BDFDD9FED267A9FED275AF0EE57
:100C7000405AE6EE075A70EE657AE6EE077AD6EE4F
:100C8000857A35EEE77A17EE103AC3F3C753D21AD6
:100C9000192A10DD9FED227A9FED225AB0EE650AE7
:100CA000A6EE070A75EEC07AE6EE077AD6EE857AEA
:100CB000B7E703236CE7B0EE650AB4E78A4270EE4B
:100CC000277A09BF9FED0E7ADFED0E6ADFED0E6A1F
:100CD00077EE877A37EEA67A77EEC77A80ED007ADC
:100CE00077EEA67AC0ED017A4FF0FF301DE700BF26
:100CF000D80F493FE3CB1640800FC93FD00FC93F03
:100D0000004435374344353708A3852E800F4943C7
:100D100000008043C015010884F9223F40150108F6
:100D200000A3852E32318D2438B510EE105A25F0EF
:100D30000044B4F1A14FF0EE407A0DD3B4F1FF4F6F
:100D400058D8DFED4F7A9FED4F7A002DCCBFB0EE33
:100D5000470AB0EE670A38BD4B4B9C4259D8B4F1F4
:100D6000445F4AD34FF0FF3227EEA76A9FED475A00
:100D70009FED477ADFED475ADFED474A66EE066A98
:100D8000531CA6EE857AE6EEA54A9FED445ADFEDA8
:100D9000445AA7EE265AE4EEA65A9FED427ADFEDBA
:100DA000424AA5EE267AE5EEA64A9FED405ADFEDCF
:100DB000405AA7EE265A9FED3F7AA4EEA67AE5EEBA
:100DC000265A27EE267AA5EE867A27EE877A35D040
:100DD000394B03EB820393ED046AD3ED006A37EEDF
:100DE000467A002D37EE677A36EEC70AB3DAB1EEEF
:100DF000400A38BD30EE000A38BD9FED307A30EE43
:100E0000077AF7EE006AB4EEE67AF1EE10FAA9DDA1
:100E100038BDFFF779FA2A4B9C4212D8A3F5D003CC
:100E20009C4223D8F0EE007ABFEE007AA0EE277A3B
:100E3000002230EE270AC7EE007A95E737EEC70AA0
:100E400038BD204B9C420BD8F7EE087AB7EE007AFB
:100E5000A0EE277A022230EE670AC0EE077A83E717
:100E6000BFEE007AC7EE007A03227DE7F7EE007A44
:100E700030EE677A30EE270A0122C7EE007A73E778
:100E8000DB0FC9BFDB0FC93FFFFFDF3ED769853CE2
:100E900059DA4B3D21A215BD6BF16EBD356B883D16
:100EA00095879DBD6E2EBA3D388EE3BD2549123E15
:100EB000ABAAAA3ECDCC4CBED8180108CAF24971E3
:100EC000FFFF973FFFFF1B402DE9F04F2DED048BF7
:100ED000DBB00C46814611466898964A04931E463C
:100EE00023460C1D52F8205006F1FF37C0F2AF82A6
:100EF000CA1E48BF0A1DD21003920132D2000692C8
:100F0000069A0398EE19A1EB0202A0EB070019D490
:100F100001369FED897ADDF8A4C106441EAC9E46D9
:100F20000028A4BF5CF8203007EE903A00F10100E1
:100F3000ACBFF8EEE77AF0EE477AB042E4EC017A23
:100F4000EED17346002DC0F2D68204981EAC04EB9D
:100F500080064FEA800805EB000E0DF58C7C3C46C0
:100F600009EB8000002FDFED747A09DBB346CA4637
:100F7000FAEC016A3BED017A8245E6EE877AF7D119
:100F800001347445ECEC017A06F10406EAD10DF166
:100F9000280A0AEB8500CDE9073104389FED689AED
:100FA000DFED668A059009EB0804AB460AEB85087D
:100FB00046AE019510465AAB03EB8B03BBF1000F15
:100FC00013ED140A16DD06EB8B03524660EE097A28
:100FD000B0EE407AFDEEE77A73ED016AF8EEE77A5B
:100FE000B342A7EEE87A37EEA60ABDEEC77AA2ECC6
:100FF000017AEBD1029000F0A3FAF4EE007AB0EEA1
:10100000408A20EE270A00F00DFBF2EE007AA0EEF7
:10101000678A02980028FDEEC89AF8EEE97A38EE61
:10102000678A6EDD0BF1FF3CC0F108035AF82C20F3
:1010300042FA03F505FA03F3D21AC0F1070119EEDB
:10104000903A42FA01F12B4400294AF82C2009EE8B
:10105000903A00F36681B5EE408AF1EE10FA40F066
:10106000BA80019B9B450BDD0AEB8B03002253F8F2
:10107000045D434542EA0502F9D1002A40F06F8140
:10108000019B013B5AF82330002B40F05F81059B08
:10109000012153F8042D0131002AFAD00BF101038C
:1010A00059449C46039D049A05EB030E0EF1804EB5
:1010B000699D5A440EF1FF3E06EB830B1EAB05EB18
:1010C0008E0E03EB8205DEED017AF8EEE77A002F53
:1010D0000EF1040EE5EC017ADFED177A09DB2A4602
:1010E0004B46F3EC016A32ED017AA342E6EE877AD1
:1010F000F7D10CF1010C8C45EBEC017AE3DD8B466A
:1011000059E740F004810BF1FF335AF82310C9115D
:101110000029A0DD19EE903ABBF1000F03F10103A5
:1011200009EE903A40F3EB810025D4462A4602911D
:10113000864619E0F818010800000000000080430E
:101140000000803B0135AB4541F8040C40F30381BE
:101150000B680CF1080C0135C3F1FF03AB454FF0F0
:1011600001024CF8043C0DDD614651F8043B002AB5
:1011700040F0CB80C3F58070002BE3D10135AB4547
:101180008C46F1DC0299704600280CDD012800F045
:10119000D480022807D10BF1FF355AF8253003F02F
:1011A0003F034AF8253002297FF455AFB7EE000A15
:1011B00030EE488A002A3FF44EAF0991029000F0C9
:1011C000BFF938EE408A02980999B5EE408AF1EEEF
:1011D00010FA3FF446AF079B019D029101930899D5
:1011E000069B0390B0EE480A581A00F0A9F95FED8B
:1011F0002D6A019B039AB4EEE60AF1EE10FAF0EEC6
:10120000407AC0F24E811FED327A20EE077A0BF160
:101210000104BDEEC77A0832B8EEC77AE7EE667A07
:10122000BDEEC77AFDEEE77A17EE901A4AF82B105A
:1012300017EE101A4AF824101046B7EE000A019370
:1012400000F07EF9002C019BB0EE407AC0F249819B
:10125000601C46AE5FED466A81000AEB800206EB39
:10126000800072ED017AF8EEE77A524567EE877AF0
:1012700027EE267A60ED017AF3D10DF1C8080A1F36
:1012800046A88718C646A44600269946002DC0F2F7
:10129000E380A94BDFEDA97A3846002201E0B24293
:1012A00008DCF3EC016AB0EC017A01329542E6EE1B
:1012B000877AF4DA0CF1FF3CBCF1FF3FEEEC017AE7
:1012C00006F10106A7F10407E0D1689A022A4B460D
:1012D0005DDC002A00F3C3800ED1DFED987A414433
:1012E00031ED017A884577EE877AF9D1029A0AB111
:1012F000F1EE677AC3ED007A19EE903A03F0070039
:101300005BB0BDEC048BBDE8F08F8C4623E7F6EEB6
:10131000007AB4EEE78AF1EE10FA80F286800021BE
:1013200099E60133BBF1000F09EE903AD8BF0022D5
:101330003FF7FAAE01287FF42CAF0BF1FF355AF8D6
:10134000253003F07F034AF825302CE70BF1010329
:101350009C461946A6E602997046012214E70BF155
:10136000FF3402915AF82410019D079BA0F1080256
:1013700000297FF461AF0BF1804101390AEB810153
:1013800051F8040D013C083A0028F9D054E7689A56
:10139000032AB1D1002C00F0BE8008EB840595ED46
:1013A000007A2A46A000294671ED017AF0EE476ADC
:1013B00037EE277A414577EEC77A81ED007A77EEEE
:1013C000A67AC1ED017AEFD1012C00F0A48095ED51
:1013D000007A08F1040172ED017AF0EE476A37EE07
:1013E000277A914277EEC77A82ED007A77EEA67A75
:1013F000C2ED017AEFD1021DDFED507A424408F1CF
:10140000080832ED017A904577EE877AF9D1029A91
:10141000DDED326A9DED337A002A4AD1C3ED006AD0
:1014200083ED017AC3ED027A66E719EE903ABBF1DB
:10143000000F03F1010309EE903AC8BF02213FF704
:1014400073AEF7EE007A37EEC88A022103E608226F
:1014500006920022039253E5DFED387A2AE7DFEDAA
:10146000377A414431ED017A884577EE877AF9D1B0
:10147000029A5ABB9DED327AC3ED007A77EE677A15
:1014800064B133A90122B1EC017A0132944277EEC2
:10149000877AF8DA029A0AB1F1EE677AC3ED017A37
:1014A0002AE7FDEEC07A5C4617EE901A4AF82B1038
:1014B000C2E6F1EE666AB1EE477AF1EE677AC3ED05
:1014C000006A83ED017AC3ED027A15E7DDED326A39
:1014D000B1EE677A83ED007A76EEE77A002CD0D110
:1014E000DAE7689A022A12DC002A17DC7FF404AFDC
:1014F000DFED127AFAE604984FEA800847E5022900
:101500007FF4A9ADF7EE007A37EEC88AA3E5689AB2
:10151000032A7FF4F1AEDFED097A78E7029A22B967
:101520000022DDED327A1A60B8E74FF00042DDEDBF
:10153000327A1A60B0E700BF041901080000000009
:1015400010EE103A33F000411A4627D0B1F1FF4FA8
:1015500021D213F0FF4F22D1DFED2B7A2B4A60EE20
:10156000277A904217EE903A33DB4CF2503CC3F3AB
:10157000C75160451A46A1F1190116DDDFED247A45
:10158000DFED246A002BB0EE677AB8BFF0EE667A22
:1015900027EE870A704730EE000A704770474CF21A
:1015A000503C60454FEAD151E8DC0144FE29E5DCBE
:1015B000002915DC11F1160F19DB193122F0FF4259
:1015C00042EAC15207EE902A9FED130A27EE800AE5
:1015D0007047DFED127A07EE103A27EE270A7047C0
:1015E00022F0FF4242EAC15300EE103A7047DFEDAD
:1015F0000B7ADFED0B6A002BB0EE677AB8BFF0EE26
:10160000667A27EE870A70470000004CB03CFFFF67
:10161000CAF24971CAF249F1000000336042A20DDA
:101620006042A28D10EE102AC2F3C7537F3B162BE7
:1016300022F0004129DC002B104618DB1A49194121
:101640000A4221D0DFED197A70EE277AF5EEC07AE2
:10165000F1EE10FA18DD002A04DA4FF4000242FA23
:1016600003F3184420EA010300EE103A7047DFED5F
:101670000F7A70EE277AF5EEC07AF1EE10FA03DDFC
:10168000002A08DB9FED0A0A7047B1F1FF4FFBD338
:1016900030EE000A7047DFED077A0029BFEE000A3E
:1016A00008BFB0EE670A7047FFFF7F00CAF24971BA
:1016B000000000000000008053B94AB9002908BFAB
:1016C00000281CBF4FF0FF314FF0FF3000F00CB886
:1016D000ADF1080C6DE904CE0FF09AFDDDF804E0E1
:1016E000DDE9022304B07047704700BF024B01469A
:1016F000186800F02FB800BF00000020024B014620
:10170000186800F0D5BB00BF0000002070B5104E77
:10171000336805460C46B3B12146284600F006F969
:10172000431C0CD0C41C24F00304A04205D0211A91
:10173000284600F0FBF8013001D0204670BD4FF084
:10174000FF34204670BD194600F0F0F83060E3E742
:10175000000300202DE9F041CD1C25F003050835DC
:101760000C2D38BF0C25002D82B0064616DBA94291
:1017700014D8354F00F06AF87A68AAB1144603E02D
:101780006368224683B11C4623685B1BF8D40B2B8D
:1017900021D8A242636855D053600DE00C2333601A
:1017A000002002B0BDE8F08129463046FFF7AEFFC9
:1017B000431C044619D00560304600F04DF804F192
:1017C0000B00231D20F00700C21A1CBF1B1AA350D8
:1017D00002B0BDE8F0816119A242256014BF5160DA
:1017E0007960635163684B60E6E77B6823B31C460E
:1017F0005B68002BFBD1226801931946304604EB4D
:10180000020800F093F8804516D12268AD1A2946E7
:101810003046FFF77BFF01300ED022687868019BCD
:101820002A442260426812B90CE010465268A24273
:10183000FBD100234360BFE70C233360304600F048
:101840000BF8ADE77B60B7E700030020014800F02C
:10185000B7B800BF58040020014800F0B9B800BF75
:1018600058040020830730B547D0541E002A3ED0CC
:10187000CAB2034601E0013C39D303F8012B9D07AE
:10188000F9D1032C2CD9CDB205EB05250F2C05EB96
:10189000054535D9A4F1100222F00F0C03F1100E0A
:1018A000E6444FEA121C1A46156055609560D560F3
:1018B00010327245F8D10CF1010214F00C0F03EB59
:1018C000021204F00F0C13D0ACF1040323F0030355
:1018D0000433134442F8045B9A42FBD10CF0030436
:1018E0002CB1C9B21C4403F8011B9C42FBD130BD92
:1018F00064461346002CF4D1F9E703461446C0E7CA
:101900001A46A446E0E700BF71B1034600EB010CA4
:1019100001E0634506D01A46013311780029F8D159
:10192000101A7047181A70470846704738B5074DA7
:101930000022044608462A6008F048FD431C00D0F7
:1019400038BD2B68002BFBD0236038BD4404002039
:10195000014B1868704700BF0000002070B50F4BA6
:101960000F4DAB42A3EB050607D0B610002455F887
:10197000043B01349847A642F9D80FF099FD094D70
:10198000094B5E1BAB424FEAA60606D0002455F871
:10199000043B01349847A642F9D870BD9C22010847
:1019A0009C2201089C220108A0220108704700BF68
:1019B000704700BF704700BF704700BF704700BF4F
:1019C000704700BF0120704701207047704700BF7B
:1019D000704700BF00000000000000000000000091
:1019E00002780B78012A28BF9A4240F0D8806DE92E
:1019F000044540EA0104CDE902676FF0000C4FEAAC
:101A000044721AB380EA010414F0070F6BD100F09E
:101A1000070420F0070004F0030521F007014FEA56
:101A2000C505F0E8042314F0040FF1E804670CFA8C
:101A300005F462EA040266EA04060BD063EA0403D2
:101A4000624667EA0407664604E000BFF0E8042344
:101A5000F1E8046782FA4CF582EA0604A4FA8CF4F1
:101A60006CBB83FA4CF583EA0705A5FA8CF595B9AA
:101A700050E9022351E9026782FA4CF582EA060432
:101A8000A4FA8CF483FA4CF583EA0705A5FA8CF5E1
:101A90002543DBD09CB92DBAB5FA85F424F00704B0
:101AA00027FA04F1DDE9026723FA04F303F0FF00EB
:101AB00001F0FF01FDE80445A0EB0100704724BAE6
:101AC000B4FA84F424F0070426FA04F1DDE902678D
:101AD00022FA04F202F0FF0001F0FF01FDE80445E4
:101AE000A0EB0100704714F0030F3CD110F0030489
:101AF00028D150F8082B51F8083B82FA4CF582EABD
:101B00000305A5FA8CF55DB950F8042C51F8043C96
:101B100082FA4CF582EA0305A5FA8CF5002DE8D08F
:101B20002DBAB5FA85F424F0070423FA04F122FA59
:101B300004F202F0FF0001F0FF01FDE80445A0EB14
:101B4000010070474FEAC40420F0030050F8082B4E
:101B500021F0030151F8083B0CFA04F462EA040294
:101B600063EA0403C9E710F003041DD0A1EB0401EC
:101B700020F00300E40750F8042B06D012D28B7833
:101B80005FFAA2F4E41A06D12BB1CB785FFAB2F473
:101B9000E41A00D133B920465DF8104B7047A2EB30
:101BA0000300704701F1040150F8042BCC0721F029
:101BB000030151F8043B48D824D222F07F4482FA32
:101BC0004CF594EA1325A5FA8CF50AD165B951F8BC
:101BD000043B84EA0204B4EB036F0ED150F8042BEB
:101BE000EBE74FEA132355E035F07F454DD10878F8
:101BF000FDE80445C0F1000070474FEA126203F0AF
:101C0000FF0347E002EA1C4482FA4CF594EA1345CC
:101C1000A5FA8CF50AD165B951F8043B84EA0204AF
:101C2000B4EB034F0CD150F8042BEBE74FEA13430E
:101C300030E015EA1C4528D10B884FEA124229E012
:101C40004FEA124203EA1C4324E002F0FF0482FA46
:101C50004CF594EA1365A5FA8CF50AD165B951F8EB
:101C6000043B84EA0204B4EB032F09D150F8042B9F
:101C7000EBE74FEA13630DE015F0FF0F05D10B689A
:101C80004FEA122223F07F4304E04FF00000FDE80A
:101C90000445704712BA1BBA82FA4CF482EA030474
:101CA000A4FA8CF5B5FA85F402FA04F203FA04F307
:101CB0004FEA1260FDE80445A0EB1360704700BFD7
:101CC00080EA0102844612F0030F4FD111F0030F96
:101CD00032D14DF8044D11F0040F51F8043B0BD0F4
:101CE000A3F101329A4312F0803F04BF4CF8043B49
:101CF00051F8043B16D100BF51F8044BA3F1013257
:101D00009A4312F0803FA4F101320BD14CF8043B0E
:101D1000A24312F0803F04BF51F8043B4CF8044B3F
:101D2000EAD023460CF8013B13F0FF0F4FEA3323B0
:101D3000F8D15DF8044B704711F0010F06D011F88F
:101D4000012B0CF8012B002A08BF704711F0020F7D
:101D5000BFD031F8022B12F0FF0F16BF2CF8022B68
:101D60008CF8002012F47F4FB3D1704711F8012B8B
:101D70000CF8012B002AF9D1704700BF844641EAD4
:101D8000000313F003036DD1403A41D351F8043BF3
:101D900040F8043B51F8043B40F8043B51F8043B45
:101DA00040F8043B51F8043B40F8043B51F8043B35
:101DB00040F8043B51F8043B40F8043B51F8043B25
:101DC00040F8043B51F8043B40F8043B51F8043B15
:101DD00040F8043B51F8043B40F8043B51F8043B05
:101DE00040F8043B51F8043B40F8043B51F8043BF5
:101DF00040F8043B51F8043B40F8043B51F8043BE5
:101E000040F8043B51F8043B40F8043B403ABDD253
:101E1000303211D351F8043B40F8043B51F8043BF5
:101E200040F8043B51F8043B40F8043B51F8043BB4
:101E300040F8043B103AEDD20C3205D351F8043B84
:101E400040F8043B043AF9D2043208D0D2071CBF50
:101E500011F8013B00F8013B01D30B880380604679
:101E6000704700BF082A13D38B078DD010F00303EF
:101E70008AD0C3F10403D21ADB071CBF11F8013B5F
:101E800000F8013B80D331F8023B20F8023B7BE7AE
:101E9000043AD9D3013A11F8013B00F8013BF9D2D9
:101EA0000B7803704B7843708B7883706046704773
:101EB000002950D038B551F8043C0C1F002BB8BF96
:101EC000E4180546FFF7C2FC274A13682BB1A3426A
:101ED0000CD92168601883422CD0636028461460B6
:101EE000BDE83840FFF7B8BCA3420FD81A465B687C
:101EF000002BF9D111685018844217D02CD363609D
:101F000054602846BDE83840FFF7A6BC1168501859
:101F1000A04214D020D8216860188342EFD11868FD
:101F20005B680844C4E900035460EAE723680B4493
:101F30001360E6E718685B6808442060CDE7206816
:101F40000144501883421160DBD1D3E900040144FD
:101F5000C2E90014D5E770470C232B602846BDE882
:101F60003840FFF779BC00BF0403002010B5054CD2
:101F7000237833B9044B13B10448AFF30080012335
:101F8000237010BD6504002000000000B01401089B
:101F900008B5034B1BB103490348AFF3008008BDEC
:101FA0000000000068040020B014010880B400AFF5
:101FB000064BD3F88830054A43F47003C2F88830E2
:101FC00000BFBD465DF8047B704700BF00ED00E038
:101FD00080B582B000AF78607B68002B01D101230F
:101FE00041E07B6893F83D30DBB2002B06D17B6883
:101FF000002283F83C20786807F020FF7B680222EB
:1020000083F83D207B681A687B68043319461046C4
:1020100000F00CFD7B68012283F846207B680122DA
:1020200083F83E207B68012283F83F207B680122F1
:1020300083F840207B68012283F841207B680122DD
:1020400083F842207B68012283F843207B680122C9
:1020500083F844207B68012283F845207B680122B5
:1020600083F83D20002318460837BD4680BD000098
:1020700080B485B000AF78607B6893F83D30DBB208
:10208000012B01D001234EE07B68022283F83D2022
:102090007B681B68DA687B681B6842F00102DA60C3
:1020A0007B681B68234A934222D07B681B68B3F18C
:1020B000804F1DD07B681B681F4A934218D07B68F5
:1020C0001B681E4A934213D07B681B681C4A9342CC
:1020D0000ED07B681B681B4A934209D07B681B6843
:1020E000194A934204D07B681B68184A934211D165
:1020F0007B681B689B6803F00703FB60FB68062B8B
:1021000010D07B681B681A687B681B6842F001026C
:102110001A6007E07B681B681A687B681B6842F0DE
:1021200001021A60002318461437BD465DF8047B8F
:10213000704700BF0000014000040040000800405C
:10214000000C004000040140004001400018004025
:1021500080B582B000AF78607B68002B01D101238D
:1021600041E07B6893F83D30DBB2002B06D17B6801
:10217000002283F83C20786800F039F87B6802225E
:1021800083F83D207B681A687B6804331946104643
:1021900000F04CFC7B68012283F846207B6801221A
:1021A00083F83E207B68012283F83F207B68012270
:1021B00083F840207B68012283F841207B6801225C
:1021C00083F842207B68012283F843207B68012248
:1021D00083F844207B68012283F845207B68012234
:1021E00083F83D20002318460837BD4680BD80B4E3
:1021F00083B000AF786000BF0C37BD465DF8047B4C
:10220000704780B582B000AF78607B68002B01D149
:10221000012341E07B6893F83D30DBB2002B06D10F
:102220007B68002283F83C20786807F071FE7B68A9
:10223000022283F83D207B681A687B6804331946C4
:10224000104600F0F3FB7B68012283F846207B6890
:10225000012283F83E207B68012283F83F207B68BF
:10226000012283F840207B68012283F841207B68AB
:10227000012283F842207B68012283F843207B6897
:10228000012283F844207B68012283F845207B6883
:10229000012283F83D20002318460837BD4680BD43
:1022A00080B584B000AF786039603B68002B09D1FD
:1022B0007B6893F83E30DBB2012B14BF012300236F
:1022C000DBB222E03B68042B09D17B6893F83F30F6
:1022D000DBB2012B14BF01230023DBB215E03B6806
:1022E000082B09D17B6893F84030DBB2012B14BF77
:1022F00001230023DBB208E07B6893F84130DBB2B6
:10230000012B14BF01230023DBB2002B01D00123DA
:102310007CE03B68002B04D17B68022283F83E20DE
:1023200013E03B68042B04D17B68022283F83F2032
:102330000BE03B68082B04D17B68022283F8402025
:1023400003E07B68022283F841207B681B6801223E
:102350003968184600F05AFE7B681B682D4A934284
:1023600004D07B681B682C4A934201D1012300E012
:102370000023002B07D07B681B685A6C7B681B68A6
:1023800042F400425A647B681B68224A934222D07E
:102390007B681B68B3F1804F1DD07B681B681F4AA8
:1023A000934218D07B681B681D4A934213D07B6808
:1023B0001B681C4A93420ED07B681B68164A9342E6
:1023C00009D07B681B68184A934204D07B681B685D
:1023D000164A934211D17B681B689B6803F0070380
:1023E000FB60FB68062B10D07B681B681A687B6853
:1023F0001B6842F001021A6007E07B681B681A68DC
:102400007B681B6842F001021A60002318461037EF
:10241000BD4680BD000001400004014000040040B2
:1024200000080040000C004000400140001800403F
:1024300080B584B000AF78607B681B68DB68FB60A8
:102440007B681B681B69BB60BB6803F00203002B41
:1024500020D0FB6803F00203002B1BD07B681B68B5
:102460006FF002021A617B6801221A777B681B6891
:102470009B6903F00303002B03D0786800F0B7FAE0
:1024800005E0786800F0A9FA786800F0BAFA7B688D
:1024900000221A77BB6803F00403002B20D0FB68EE
:1024A00003F00403002B1BD07B681B686FF0040251
:1024B0001A617B6802221A777B681B689B6903F4A8
:1024C0004073002B03D0786800F091FA05E078683B
:1024D00000F083FA786800F094FA7B6800221A779B
:1024E000BB6803F00803002B20D0FB6803F008034F
:1024F000002B1BD07B681B686FF008021A617B6899
:1025000004221A777B681B68DB6903F00303002B46
:1025100003D0786800F06BFA05E0786800F05DFAA7
:10252000786800F06EFA7B6800221A77BB6803F0C7
:102530001003002B20D0FB6803F01003002B1BD0EE
:102540007B681B686FF010021A617B6808221A779B
:102550007B681B68DB6903F44073002B03D0786849
:1025600000F045FA05E0786800F037FA786800F086
:1025700048FA7B6800221A77BB6803F00103002B3E
:102580000CD0FB6803F00103002B07D07B681B68AD
:102590006FF001021A61786806F008FEBB6803F06C
:1025A0008003002B0CD0FB6803F08003002B07D0C6
:1025B0007B681B686FF080021A61786800F024FE67
:1025C000BB6803F04003002B0CD0FB6803F0400312
:1025D000002B07D07B681B686FF040021A61786897
:1025E00000F019FABB6803F02003002B0CD0FB6845
:1025F00003F02003002B07D07B681B686FF02002DC
:102600001A61786800F0F6FD00BF1037BD4680BD46
:1026100080B586B000AFF860B9607A600023FB75C2
:10262000FB6893F83C30012B01D1022348E0FB68A2
:10263000012283F83C207B680C2B39D801A252F888
:1026400023F000BF79260008B1260008B126000853
:10265000B126000887260008B1260008B126000828
:10266000B126000895260008B1260008B12600080A
:10267000B1260008A3260008FB681B68B968184645
:1026800000F07AFA17E0FB681B68B968184600F09A
:10269000E3FA10E0FB681B68B968184600F052FBCB
:1026A00009E0FB681B68B968184600F0BFFB02E050
:1026B0000123FB7500BFFB68002283F83C20FB7DF3
:1026C00018461837BD4680BD80B586B000AFF860AB
:1026D000B9607A600023FB75FB6893F83C30012BEE
:1026E00001D10223AEE0FB68012283F83C207B6825
:1026F0000C2B00F29F8001A252F823F03127000832
:1027000035280008352800083528000871270008FA
:10271000352800083528000835280008B3270008A8
:10272000352800083528000835280008F327000858
:10273000FB681B68B968184600F01EFAFB681B6846
:102740009A69FB681B6842F008029A61FB681B6883
:102750009A69FB681B6822F004029A61FB681B6897
:102760009969BB681A69FB681B680A439A6164E04F
:10277000FB681B68B968184600F06EFAFB681B68B6
:102780009A69FB681B6842F400629A61FB681B68E7
:102790009A69FB681B6822F480629A61FB681B6877
:1027A0009969BB681B691A02FB681B680A439A6136
:1027B00043E0FB681B68B968184600F0C3FAFB6881
:1027C0001B68DA69FB681B6842F00802DA61FB6883
:1027D0001B68DA69FB681B6822F00402DA61FB6897
:1027E0001B68D969BB681A69FB681B680A43DA6110
:1027F00023E0FB681B68B968184600F017FBFB680C
:102800001B68DA69FB681B6842F40062DA61FB68E6
:102810001B68DA69FB681B6822F48062DA61FB6876
:102820001B68D969BB681B691A02FB681B680A43ED
:10283000DA6102E00123FB7500BFFB68002283F828
:102840003C20FB7D18461837BD4680BD80B584B05E
:1028500000AF786039600023FB737B6893F83C30ED
:10286000012B01D10223B4E07B68012283F83C20D4
:102870007B68022283F83D207B681B689B68BB60F5
:10288000BB6823F07703BB60BB6823F47F43BB6066
:102890007B681B68BA689A603B681B68B3F5005F89
:1028A0003ED0B3F5005F00F28780B3F5805F00F0A3
:1028B0008680B3F5805F7FD8702B1AD0702B7BD8C1
:1028C000602B50D0602B77D8502B3CD0502B73D836
:1028D000402B58D0402B6FD8302B64D0302B6BD886
:1028E000202B60D0202B67D8002B5CD0102B5AD027
:1028F00062E07B6818683B6899683B685A683B6887
:10290000DB6800F063FB7B681B689B68BB60BB688F
:1029100043F07703BB607B681B68BA689A604FE03E
:102920007B6818683B6899683B685A683B68DB6855
:1029300000F04CFB7B681B689A687B681B6842F45C
:1029400080429A603CE07B6818683B6859683B6845
:10295000DB681A4600F0C0FA7B681B6850211846F5
:1029600000F019FB2CE07B6818683B6859683B68ED
:10297000DB681A4600F0DFFA7B681B6860211846A6
:1029800000F009FB1CE07B6818683B6859683B68ED
:10299000DB681A4600F0A0FA7B681B6840211846E5
:1029A00000F0F9FA0CE07B681A683B681B6819466E
:1029B000104600F0F0FA03E00123FB7300E000BFD3
:1029C0007B68012283F83D207B68002283F83C204D
:1029D000FB7B18461037BD4680BD80B483B000AF86
:1029E000786000BF0C37BD465DF8047B704780B44B
:1029F00083B000AF786000BF0C37BD465DF8047B44
:102A0000704780B483B000AF786000BF0C37BD461C
:102A10005DF8047B704780B483B000AF786000BF7E
:102A20000C37BD465DF8047B7047000080B485B06C
:102A300000AF786039607B681B68FB607B68434A45
:102A4000934213D07B68B3F1804F0FD07B68404A2C
:102A500093420BD07B683F4A934207D07B683E4A43
:102A6000934203D07B683D4A934208D1FB6823F030
:102A70007003FB603B685B68FA681343FB607B682C
:102A8000324A93422BD07B68B3F1804F27D07B68CA
:102A90002F4A934223D07B682E4A93421FD07B68F3
:102AA0002D4A93421BD07B682C4A934217D07B68F7
:102AB0002B4A934213D07B682A4A93420FD07B68FB
:102AC000294A93420BD07B68284A934207D07B68FF
:102AD000274A934203D07B68264A934208D1FB6879
:102AE00023F44073FB603B68DB68FA681343FB60C8
:102AF000FB6823F080023B685B691343FB603B6823
:102B00009A687B68DA623B681A687B689A627B68BD
:102B10000E4A934203D07B68104A934203D13B682C
:102B20001A697B681A637B681B6843F004027B6840
:102B30001A607B6801225A617B68FA681A6000BFDC
:102B40001437BD465DF8047B704700BF00000140AC
:102B50000004004000080040000C00400004014058
:102B6000004001400044014000480140001800407E
:102B7000001C00400020004080B487B000AF7860A7
:102B800039607B681B6A7B617B681B6A23F00102EA
:102B90007B681A627B685B683B617B689B69FB6052
:102BA000FB6823F07003FB60FB6823F00303FB600A
:102BB0003B681B68FA681343FB607B6923F00203E0
:102BC0007B613B689B687A6913437B617B68204A21
:102BD000934203D07B681F4A93420CD17B6923F058
:102BE00008037B613B68DB687A6913437B617B691F
:102BF00023F004037B617B68154A934203D07B6812
:102C0000144A934211D13B6923F480733B613B69C1
:102C100023F400733B613B685B693A6913433B6192
:102C20003B689B693A6913433B617B683A695A6028
:102C30007B68FA689A613B685A687B685A637B686C
:102C40007A691A6200BF1C37BD465DF8047B704785
:102C5000000001400004014080B487B000AF7860FC
:102C600039607B681B6A7B617B681B6A23F01002FA
:102C70007B681A627B685B683B617B689B69FB6071
:102C8000FB6823F4E043FB60FB6823F44073FB60C4
:102C90003B681B681B02FA681343FB607B6923F0E7
:102CA00020037B613B689B681B017A6913437B614E
:102CB0007B68224A934203D07B68214A93420DD11C
:102CC0007B6923F080037B613B68DB681B017A69C9
:102CD00013437B617B6923F040037B617B68174A68
:102CE000934203D07B68164A934213D13B6923F485
:102CF00080633B613B6923F400633B613B685B6934
:102D00009B003A6913433B613B689B699B003A69AE
:102D100013433B617B683A695A607B68FA689A6141
:102D20003B685A687B689A637B687A691A6200BF5D
:102D30001C37BD465DF8047B704700BF00000140B2
:102D40000004014080B487B000AF786039607B68D0
:102D50001B6A7B617B681B6A23F480727B681A6242
:102D60007B685B683B617B68DB69FB60FB6823F029
:102D70007003FB60FB6823F00303FB603B681B6888
:102D8000FA681343FB607B6923F400737B613B6843
:102D90009B681B027A6913437B617B68214A9342DB
:102DA00003D07B68204A93420DD17B6923F40063F2
:102DB0007B613B68DB681B027A6913437B617B693B
:102DC00023F480637B617B68164A934203D07B685F
:102DD000154A934213D13B6923F480533B613B690D
:102DE00023F400533B613B685B691B013A69134361
:102DF0003B613B689B691B013A6913433B617B68FC
:102E00003A695A607B68FA68DA613B685A687B689D
:102E1000DA637B687A691A6200BF1C37BD465DF8C9
:102E2000047B7047000001400004014080B487B07B
:102E300000AF786039607B681B6A3B617B681B6A06
:102E400023F480527B681A627B685B687B617B68D5
:102E5000DB69FB60FB6823F4E043FB60FB6823F461
:102E60004073FB603B681B681B02FA681343FB60FE
:102E70003B6923F400533B613B689B681B033A6941
:102E800013433B617B68124A934203D07B68114A2B
:102E9000934209D17B6923F480437B613B685B6982
:102EA0009B017A6913437B617B687A695A607B680E
:102EB000FA68DA613B685A687B681A647B683A6929
:102EC0001A6200BF1C37BD465DF8047B704700BF27
:102ED000000001400004014080B487B000AFF860FA
:102EE000B9607A60FB681B6A7B61FB681B6A23F030
:102EF0000102FB681A62FB689B693B613B6923F036
:102F0000F0033B617B681B013A6913433B617B69BA
:102F100023F00A037B617A69BB6813437B61FB681A
:102F20003A699A61FB687A691A6200BF1C37BD462C
:102F30005DF8047B704780B487B000AFF860B9607B
:102F40007A60FB681B6A7B61FB681B6A23F01002D6
:102F5000FB681A62FB689B693B613B6923F4704321
:102F60003B617B681B033A6913433B617B6923F038
:102F7000A0037B61BB681B017A6913437B61FB681B
:102F80003A699A61FB687A691A6200BF1C37BD46CC
:102F90005DF8047B704780B485B000AF786039601D
:102FA0007B689B68FB60FB6823F07003FB603A68FA
:102FB000FB68134343F00703FB607B68FA689A6081
:102FC00000BF1437BD465DF8047B704780B487B0FE
:102FD00000AFF860B9607A603B60FB689B687B611A
:102FE0007B6923F47F437B613B681A027B681A4349
:102FF000BB6813437A6913437B61FB687A699A6003
:1030000000BF1C37BD465DF8047B704780B487B0B5
:1030100000AFF860B9607A60BB6803F01F0301225B
:1030200002FA03F37B61FB681A6A7B69DB431A408F
:10303000FB681A62FB681A6ABB6803F01F037968B1
:1030400001FA03F31A43FB681A6200BF1C37BD463E
:103050005DF8047B7047000080B485B000AF7860F5
:1030600039607B6893F83C30012B01D102235AE090
:103070007B68012283F83C207B68022283F83D2094
:103080007B681B685B68FB607B681B689B68BB6038
:10309000FB6823F07003FB603B681B68FA6813430E
:1030A000FB607B681B68FA685A607B681B68214A72
:1030B000934222D07B681B68B3F1804F1DD07B68A0
:1030C0001B681D4A934218D07B681B681B4A9342B9
:1030D00013D07B681B681A4A93420ED07B681B682A
:1030E000184A934209D07B681B68174A934204D060
:1030F0007B681B68154A93420CD1BB6823F08003A0
:10310000BB603B685B68BA681343BB607B681B6845
:10311000BA689A607B68012283F83D207B680022B0
:1031200083F83C20002318461437BD465DF8047B25
:10313000704700BF0000014000040040000800404C
:10314000000C004000040140004001400018004015
:1031500080B485B000AF786039600023FB607B6885
:1031600093F83C30012B01D102233DE07B68012222
:1031700083F83C20FB6823F0FF023B68DB681343C5
:10318000FB60FB6823F440723B689B681343FB6061
:10319000FB6823F480623B685B681343FB60FB6859
:1031A00023F400623B681B681343FB60FB6823F455
:1031B00080523B681B691343FB60FB6823F4005299
:1031C0003B685B691343FB60FB6823F480423B6808
:1031D000DB691343FB607B681B68FA685A647B6891
:1031E000002283F83C20002318461437BD465DF8C2
:1031F000047B704780B483B000AF786000BF0C37A9
:10320000BD465DF8047B704780B483B000AF786042
:1032100000BF0C37BD465DF8047B704780B584B0B5
:1032200000AF78600023FB737B68002B01D1012382
:1032300033E07B681B6C002B09D1786806F01EF91F
:103240007B6800225A647B68002283F83C207B68FC
:103250001B6C03F01003002B18D17B681B6C23F44C
:10326000885323F0020343F002027B681A647868F3
:1032700000F03AF97B6800225A647B681B6C23F0EB
:10328000030343F001027B681A6401E00123FB732E
:103290007B68002283F83C20FB7B18461037BD4634
:1032A00080BD000080B485B000AF78603960002335
:1032B000BB607B6893F83C30012B01D1022305E110
:1032C0007B68012283F83C203B681B68092B25D9C9
:1032D0007B681B68D9683B681B689BB21A4613461B
:1032E0005B0013441E3B072202FA03F3DA437B68B8
:1032F0001B680A40DA607B681B68D9683B689A687B
:103300003B681B689BB2184603465B0003441E3BA8
:103310009A407B681B680A43DA6022E07B681B687E
:1033200019693B681B689BB21A4613465B0013443D
:10333000072202FA03F3DA437B681B680A401A612A
:103340007B681B6819693B689A683B681B689BB27D
:10335000184603465B0003449A407B681B680A4397
:103360001A613B685B68062B24D87B681B68596B25
:103370003B685A6813469B001344053B1F2202FA20
:1033800003F3DA437B681B680A405A637B681B6857
:10339000596B3B681B689BB218463B685A681346DA
:1033A0009B001344053B00FA03F27B681B680A4349
:1033B0005A634CE03B685B680C2B24D87B681B6825
:1033C000196B3B685A6813469B001344233B1F222A
:1033D00002FA03F3DA437B681B680A401A637B68CE
:1033E0001B68196B3B681B689BB218463B685A68A0
:1033F00013469B001344233B00FA03F27B681B68CF
:103400000A431A6323E07B681B68D96A3B685A68E1
:1034100013469B001344413B1F2202FA03F3DA4395
:103420007B681B680A40DA627B681B68D96A3B6864
:103430001B689BB218463B685A6813469B001344AE
:10344000413B00FA03F27B681B680A43DA62224BB5
:10345000FB607B681B68214A934209D13B681B686B
:10346000122B05D1FB685B6843F48002FB685A604D
:103470007B681B68194A934223D13B681B68102B59
:1034800003D03B681B68112B1BD1FB685B6843F4BE
:103490000002FB685A603B681B68102B11D1104B6F
:1034A0001B68104AA2FB03239A0C13469B0013448B
:1034B0005B00BB6002E0BB68013BBB60BB68002BEC
:1034C000F9D17B68002283F83C200023184614378A
:1034D000BD465DF8047B7047002301400020014099
:1034E0005000002083DE1B4380B485B000AF7860BD
:1034F000794BFB60FB685B6823F44032FB685A60E1
:10350000FB685A687B685B681A43FB685A607B6893
:103510001B685A687B681B6822F480725A607B685B
:103520001B6859687B681B691A027B681B680A4321
:103530005A607B681B685A687B681B6822F040727F
:103540005A607B681B6859687B689A687B681B684F
:103550000A435A607B681B689A687B681B6822F480
:1035600000629A607B681B6899687B68DA687B6890
:103570001B680A439A607B689B6A584A934222D030
:103580007B681B689A687B681B6822F070629A608F
:103590007B681B6899687B689A6A7B681B680A432A
:1035A0009A607B681B689A687B681B6822F04052AF
:1035B0009A607B681B6899687B68DA6A7B681B681D
:1035C0000A439A600FE07B681B689A687B681B68F7
:1035D00022F070629A607B681B689A687B681B683F
:1035E00022F040529A607B681B689A687B681B686F
:1035F00022F002029A607B681B6899687B681B7ED8
:103600005A007B681B680A439A607B6893F82030F5
:10361000002B1BD07B681B685A687B681B6842F4D0
:1036200000625A607B681B685A687B681B6822F4DA
:1036300060425A607B681B6859687B685B6A013B23
:103640005A037B681B680A435A6007E07B681B6863
:103650005A687B681B6822F400625A607B681B68AA
:10366000DA6A7B681B6822F47002DA627B681B6886
:10367000D96A7B68DB69013B1A057B681B680A43D2
:10368000DA627B681B689A687B681B6822F40072A8
:103690009A607B681B6899687B6893F830305A029F
:1036A0007B681B680A439A607B681B689A687B6822
:1036B0001B6822F480629A607B681B6899687B684B
:1036C0005B699A027B681B680A439A6000BF1437E3
:1036D000BD465DF8047B7047002301400100000FE8
:1036E00080B586B000AF78607B68002B01D10123E4
:1036F00067E27B681B6803F00103002B75D0884BE1
:103700009B6803F00C03042B0CD0854B9B6803F0E3
:103710000C03082B12D1824B5B6803F48003B3F5D2
:10372000800F0BD17E4B1B6803F40033002B5BD062
:103730007B685B68002B57D1012342E27B685B68A2
:10374000B3F5803F06D1764B1B68754A43F480334E
:1037500013601DE07B685B68B3F5A02F0CD1704B44
:103760001B686F4A43F4802313606D4B1B686C4ADF
:1037700043F4803313600BE0694B1B68684A23F401
:1037800080331360664B1B68654A23F48023136003
:103790007B685B68002B13D000F0E6FE386108E020
:1037A00000F0E2FE02463B69D31A642B01D90323E1
:1037B00007E25B4B1B6803F40033002BF0D014E0EE
:1037C00000F0D2FE386108E000F0CEFE02463B6910
:1037D000D31A642B01D90323F3E1514B1B6803F483
:1037E0000033002BF0D100E000BF7B681B6803F0C2
:1037F0000203002B63D04A4B9B6803F00C03002BA1
:103800000BD0474B9B6803F00C03082B1CD1444B97
:103810005B6803F48003002B16D1414B1B6803F057
:103820000203002B05D07B68DB68012B01D001234C
:10383000C7E13B4B1B6823F0F8027B681B69DB0088
:10384000374913430B603AE07B68DB68002B20D0DC
:10385000344B01221A6000F087FE386108E000F066
:1038600083FE02463B69D31A022B01D90323A8E148
:103870002B4B1B6803F00203002BF0D0284B1B6876
:1038800023F0F8027B681B69DB00254913430B60BA
:1038900015E0244B00221A6000F066FE386108E053
:1038A00000F062FE02463B69D31A022B01D90323C2
:1038B00087E11B4B1B6803F00203002BF0D17B68F0
:1038C0001B6803F00803002B36D07B685B69002B74
:1038D00016D0154B01221A6000F046FE386108E050
:1038E00000F042FE02463B69D31A022B01D90323A2
:1038F00067E10B4B5B6F03F00203002BF0D01BE082
:10390000094B00221A6000F02FFE38610EE000F033
:103910002BFE02463B69D31A022B07D9032350E141
:103920000038024000004742800E4742884B5B6FE0
:1039300003F00203002BEAD17B681B6803F0040349
:10394000002B00F097800023FB75814B1B6C03F06C
:103950008053002B0FD10023BB607D4B1B6C7C4A36
:1039600043F0805313647A4B1B6C03F08053BB60AD
:10397000BB680123FB75774B1B6803F48073002B36
:1039800018D1744B1B68734A43F48073136000F0C2
:10399000EBFD386108E000F0E7FD02463B69D31A11
:1039A000022B01D903230CE16A4B1B6803F48073DB
:1039B000002BF0D07B689B68012B06D1644B1B6FFA
:1039C000634A43F0010313671CE07B689B68052B87
:1039D0000CD15F4B1B6F5E4A43F0040313675C4BD3
:1039E0001B6F5B4A43F0010313670BE0584B1B6FDF
:1039F000574A23F001031367554B1B6F544A23F0BA
:103A0000040313677B689B68002B15D000F0ACFDA6
:103A100038610AE000F0A8FD02463B69D31A41F282
:103A20008832934201D90323CBE0494B1B6F03F04B
:103A30000203002BEED014E000F096FD38610AE09E
:103A400000F092FD02463B69D31A41F2883293425C
:103A500001D90323B5E03E4B1B6F03F00203002B9B
:103A6000EED1FB7D012B05D1394B1B6C384A23F07D
:103A7000805313647B689B69002B00F0A180344B5A
:103A80009B6803F00C03082B5CD07B689B69022BBE
:103A900041D1314B00221A6000F066FD386108E028
:103AA00000F062FD02463B69D31A022B01D90323C1
:103AB00087E0274B1B6803F00073002BF0D17B6875
:103AC000DA697B681B6A1A437B685B6A9B011A434D
:103AD0007B689B6A5B08013B1B041A437B68DB6ABB
:103AE0001B061B4913434B601B4B01221A6000F05D
:103AF0003BFD386108E000F037FD02463B69D31A10
:103B0000022B01D903235CE0114B1B6803F0007307
:103B1000002BF0D054E0104B00221A6000F024FD7E
:103B2000386108E000F020FD02463B69D31A022B01
:103B300001D9032345E0064B1B6803F00073002BFB
:103B4000F0D13DE07B689B69012B07D1012338E070
:103B50000038024000700040600047421B4B5B6829
:103B6000FB607B689B69012B28D0FB6803F4800213
:103B70007B68DB699A4221D1FB6803F03F027B68D6
:103B80001B6A9A421AD1FA6847F6C07313407A68E2
:103B9000526A9201934211D1FB6803F440327B6870
:103BA0009B6A5B08013B1B049A4207D1FB6803F048
:103BB00070627B68DB6A1B069A4201D0012300E039
:103BC000002318461837BD4680BD00BF00380240AC
:103BD00080B584B000AF786039607B68002B01D17C
:103BE0000123CCE0684B1B6803F007033A689A4254
:103BF0000CD9654B3A68D2B21A70634B1B6803F05C
:103C000007033A689A4201D00123B8E07B681B6839
:103C100003F00203002B20D07B681B6803F0040331
:103C2000002B05D0594B9B68584A43F4E0539360EE
:103C30007B681B6803F00803002B05D0534B9B687F
:103C4000524A43F460439360504B9B6823F0F00268
:103C50007B689B684D4913438B607B681B6803F04E
:103C60000103002B44D07B685B68012B07D1474BD5
:103C70001B6803F40033002B19D101237FE07B681C
:103C80005B68022B03D07B685B68032B07D13F4B3B
:103C90001B6803F00073002B09D101236FE03B4B3D
:103CA0001B6803F00203002B01D1012367E0374BAF
:103CB0009B6823F003027B685B68344913438B6085
:103CC00000F052FCF8600AE000F04EFC0246FB688F
:103CD000D31A41F28832934201D903234FE02B4B90
:103CE0009B6803F00C027B685B689B009A42EBD1F7
:103CF000254B1B6803F007033A689A420CD2224B0B
:103D00003A68D2B21A70204B1B6803F007033A6876
:103D10009A4201D0012332E07B681B6803F0040360
:103D2000002B08D0194B9B6823F4E0527B68DB68BA
:103D3000164913438B607B681B6803F00803002B54
:103D400009D0124B9B6823F460427B681B69DB003F
:103D50000E4913438B6000F021F802460B4B9B6821
:103D60001B0903F00F030A49CB5C22FA03F3094A4B
:103D70001360094B1B68184606F0ACFA002318467E
:103D80001037BD4680BD00BF003C024000380240F5
:103D90003019010850000020540000202DE9B04FD8
:103DA00090B000AF00237B630023FB6300233B63E1
:103DB0000023BB63594B9B6803F00C03082B0DD009
:103DC000082B00F2A180002B02D0042B03D09BE033
:103DD000534BBB639BE0534BBB6398E04F4B5B681B
:103DE00003F03F037B634D4B5B6803F48003002BC0
:103DF00028D04A4B5B689B0900223B627A623B6A8F
:103E0000C3F308000021474B03FB01F2002300FB32
:103E100003F31344434AA0FB0212FA620A46BA6251
:103E2000FA6A1344FB627B6B0022BB61FA61D7E93B
:103E30000623D7E90A01FDF73FFC02460B4613466D
:103E4000FB6353E0354B5B689B0900223B617A6161
:103E50003B69C3F3080A4FF0000B52465B464FF034
:103E600000004FF00001590141EAD26150010246C1
:103E70000B46B2EB0A0863EB0B094FF000024FF060
:103E800000034FEA891343EA98634FEA8812B2EBC2
:103E9000080463EB09054FF000024FF00003EB004C
:103EA00043EA5473E20014461D4614EB0A033B60D8
:103EB00045EB0B037B604FF000024FF00003D7E9A6
:103EC000004529468B02214643EA915321468A0246
:103ED000104619467B6B0022BB60FA60D7E90223CB
:103EE000FDF7EAFB02460B461346FB630B4B5B6890
:103EF0001B0C03F0030301335B003B63FA6B3B6B6A
:103F0000B2FBF3F3BB6302E0054BBB6300BFBB6BCB
:103F100018464037BD46BDE8B08F00BF00380240AC
:103F20000024F400001BB70080B400AF034B1B68F3
:103F30001846BD465DF8047B704700BF5000002066
:103F400080B500AFFFF7F0FF0246054B9B689B0A68
:103F500003F007030349CB5C22FA03F3184680BD44
:103F6000003802404019010880B483B000AF786087
:103F700039607B680F221A60124B9B6803F00302C2
:103F80007B685A600F4B9B6803F0F0027B689A6075
:103F90000C4B9B6803F4E0527B68DA60094B9B682A
:103FA000DB0803F4E0527B681A61074B1B6803F0DF
:103FB00007023B681A6000BF0C37BD465DF8047B02
:103FC000704700BF00380240003C024080B489B016
:103FD00000AF7860396000237B6100233B610023E0
:103FE000BB610023FB616BE10122FB6902FA03F371
:103FF0007B613B681B687A6913403B613A697B6966
:104000009A4240F05A813B685B6803F00303012B3E
:1040100005D03B685B6803F00303022B30D17B685B
:104020009B68BB61FB695B00032202FA03F3DB437D
:10403000BA691340BB613B68DA68FB695B0002FA4E
:1040400003F3BA691343BB617B68BA699A607B6802
:104050005B68BB610122FB6902FA03F3DB43BA69C7
:104060001340BB613B685B681B0903F00102FB69FD
:1040700002FA03F3BA691343BB617B68BA695A60F9
:104080003B685B6803F00303032B17D07B68DB6896
:10409000BB61FB695B00032202FA03F3DB43BA69ED
:1040A0001340BB613B689A68FB695B0002FA03F34B
:1040B000BA691343BB617B68BA69DA603B685B68C5
:1040C00003F00303022B23D1FB69DA087B68083273
:1040D00053F82230BB61FB6903F007039B000F22FA
:1040E00002FA03F3DB43BA691340BB613B681A6908
:1040F000FB6903F007039B0002FA03F3BA69134359
:10410000BB61FB69DA087B680832B96943F82210A1
:104110007B681B68BB61FB695B00032202FA03F347
:10412000DB43BA691340BB613B685B6803F0030281
:10413000FB695B0002FA03F3BA691343BB617B6856
:10414000BA691A603B685B6803F44033002B00F0E7
:10415000B4800023FB60604B5B6C5F4A43F4804398
:1041600053645D4B5B6C03F48043FB60FB685B4A0C
:10417000FB699B08023352F82330BB61FB6903F0F3
:1041800003039B000F2202FA03F3DB43BA691340D7
:10419000BB617B68524A93422BD07B68514A934261
:1041A00025D07B68504A93421FD07B684F4A934288
:1041B00019D07B684E4A934213D07B684D4A934294
:1041C0000DD07B684C4A934207D07B684B4A9342A0
:1041D00001D107230EE008230CE006230AE00523A3
:1041E00008E0042306E0032304E0022302E00123A5
:1041F00000E00023FA6902F0030292009340BA69DA
:104200001343BB613549FB699B080233BA6941F826
:1042100023203B4B9B68BB613B69DB43BA6913407E
:10422000BB613B685B6803F48013002B03D0BA6961
:104230003B691343BB61324ABB699360304BDB6817
:10424000BB613B69DB43BA691340BB613B685B6898
:1042500003F40013002B03D0BA693B691343BB611D
:10426000274ABB69D360264B5B68BB613B69DB4374
:10427000BA691340BB613B685B6803F40033002BF1
:1042800003D0BA693B691343BB611D4ABB695360E4
:104290001B4B1B68BB613B69DB43BA691340BB61C5
:1042A0003B685B6803F48033002B03D0BA693B6939
:1042B0001343BB61124ABB691360FB690133FB61A5
:1042C000FB690F2B7FF690AE00BF00BF2437BD46C1
:1042D0005DF8047B704700BF0038024000380140A1
:1042E000000002400004024000080240000C0240AE
:1042F000001002400014024000180240001C02405E
:10430000003C014080B483B000AF78600B467B80F6
:1043100013467B707B78002B03D07A887B689A6188
:1043200003E07B881A047B689A6100BF0C37BD46A6
:104330005DF8047B7047000080B485B000AF786002
:104340007B6803F00703FB600C4BDB68BB60BA685B
:104350004FF6FF031340BB60FB681A02BB681343B0
:1043600043F0BF6343F40033BB60044ABB68D360CF
:1043700000BF1437BD465DF8047B704700ED00E0D8
:1043800080B400AF044BDB681B0A03F00703184638
:10439000BD465DF8047B704700ED00E080B483B05B
:1043A00000AF0346FB7197F90730002B0BDBFB795D
:1043B00003F01F02074997F907305B09012000FA53
:1043C00002F241F8232000BF0C37BD465DF8047BA4
:1043D000704700BF00E100E080B483B000AF034647
:1043E0003960FB7197F90730002B0ADB3B68DAB2C2
:1043F0000C4997F907301201D2B20B4483F800231D
:104400000AE03B68DAB20849FB7903F00F03043B8A
:104410001201D2B20B441A7600BF0C37BD465DF8CC
:10442000047B704700E100E000ED00E080B489B05B
:1044300000AFF860B9607A60FB6803F00703FB61C6
:10444000FB69C3F10703042B28BF0423BB61FB698D
:104450000433062B02D9FB69033B00E000237B6198
:104460004FF0FF32BB6902FA03F3DA43BB681A402C
:104470007B699A404FF0FF317B6901FA03F3D9431E
:104480007B680B40134318462437BD465DF8047B18
:10449000704780B582B000AF78607868FFF74CFF56
:1044A00000BF0837BD4680BD80B586B000AF03466B
:1044B000B9607A60FB7300237B61FFF761FF78616D
:1044C0007A68B9687869FFF7B1FF024697F90F304B
:1044D00011461846FFF780FF00BF1837BD4680BD64
:1044E00080B582B000AF0346FB7197F907301846DC
:1044F000FFF754FF00BF0837BD4680BD80B500AF51
:104500000E4B1B680D4A43F4007313600B4B1B6882
:104510000A4A43F480631360084B1B68074A43F45C
:10452000807313600320FFF7B4FF0F2005F0D2FE65
:1045300005F0A4FE0023184680BD00BF003C0240E9
:1045400080B400AF064B1B781A46064B1B68134419
:10455000044A136000BFBD465DF8047B704700BF8E
:10456000580000208004002080B400AF034B1B687B
:104570001846BD465DF8047B704700BF80040020EC
:1045800080B584B000AF7860FFF7EEFFB8607B685D
:10459000FB60FB68B3F1FF3F05D00A4B1B781A465E
:1045A000FB681344FB6000BFFFF7DEFF0246BB68F9
:1045B000D31AFA689A42F7D800BF00BF1037BD4639
:1045C00080BD00BF5800002080B584B000AF786087
:1045D0007B68002B01D10123EDE07B6893F820304C
:1045E000DBB2002B02D1786804F0A0FF7B681B6867
:1045F0001A687B681B6842F001021A60FFF7B4FF7B
:10460000F86012E0FFF7B0FF0246FB68D31A0A2BEE
:104610000BD97B685B6A43F400327B685A627B6823
:10462000052283F820200123C5E07B681B685B68B6
:1046300003F00103002BE5D07B681B681A687B68D8
:104640001B6822F002021A60FFF78EFFF86012E08A
:10465000FFF78AFF0246FB68D31A0A2B0BD97B6847
:104660005B6A43F400327B685A627B68052283F8F8
:10467000202001239FE07B681B685B6803F0020336
:10468000002BE5D17B681B7E012B08D17B681B6862
:104690001A687B681B6842F080021A6007E07B683A
:1046A0001B681A687B681B6822F080021A607B68AE
:1046B0005B7E012B08D17B681B681A687B681B68CE
:1046C00042F040021A6007E07B681B681A687B684A
:1046D0001B6822F040021A607B689B7E012B08D188
:1046E0007B681B681A687B681B6842F020021A60AE
:1046F00007E07B681B681A687B681B6822F0200251
:104700001A607B68DB7E012B08D17B681B681A6806
:104710007B681B6822F010021A6007E07B681B6848
:104720001A687B681B6842F010021A607B681B7F66
:10473000012B08D17B681B681A687B681B6842F0F4
:1047400008021A6007E07B681B681A687B681B68B0
:1047500022F008021A607B685B7F012B08D17B681E
:104760001B681A687B681B6842F004021A6007E045
:104770007B681B681A687B681B6822F004021A6059
:104780007B689A687B68DB681A437B681B691A43FD
:104790007B685B6942EA03017B685B685A1E7B6841
:1047A0001B680A43DA617B6800225A627B68012237
:1047B00083F82020002318461037BD4680BD000036
:1047C00080B487B000AF786039607B6893F82030A0
:1047D000FB75FB7D012B03D0FB7D022B40F0BE80DF
:1047E000654B3B613B69D3F8003243F001023B6902
:1047F000C3F800223B69D3F8003223F47C523B69B2
:10480000C3F800223B69D3F800223B685B6A1B02B5
:104810001A433B69C3F800223B685B6903F01F033E
:10482000012202FA03F3FB603B69D3F81C22FB6808
:10483000DB431A403B69C3F81C223B68DB69002B51
:1048400023D13B69D3F80C22FB68DB431A403B6958
:10485000C3F80C223B68DB6819043B685B689BB2B9
:104860003A68526919433B69483243F832103B6851
:104870009B6819043B681B689AB23B685B690A43F2
:1048800039694833DB000B445A603B68DB69012B14
:1048900022D13B69D3F80C22FB681A433B69C3F869
:1048A0000C223B681B6819043B685B689BB23A6842
:1048B000526919433B69483243F832103B689B68A0
:1048C00019043B68DB689AB23B685B690A43396943
:1048D0004833DB000B445A603B689B69002B09D1CD
:1048E0003B69D3F80422FB68DB431A403B69C3F8F9
:1048F000042207E03B69D3F80422FB681A433B69B2
:10490000C3F804223B681B69002B09D13B69D3F82B
:104910001422FB68DB431A403B69C3F8142207E00A
:104920003B69D3F81422FB681A433B69C3F814228D
:104930003B681B6A012B07D13B69D3F81C22FB683B
:104940001A433B69C3F81C223B69D3F8003223F0B9
:1049500001023B69C3F80022002306E07B685B6A22
:1049600043F480227B685A62012318461C37BD46F7
:104970005DF8047B704700BF0064004080B584B0E0
:1049800000AF78607B6893F82030DBB2012B2ED12A
:104990007B68022283F820207B681B681A687B688A
:1049A0001B6822F001021A60FFF7DEFDF86012E0DA
:1049B000FFF7DAFD0246FB68D31A0A2B0BD97B6896
:1049C0005B6A43F400327B685A627B68052283F895
:1049D0002020012312E07B681B685B6803F0010361
:1049E000002BE5D17B6800225A62002306E07B6839
:1049F0005B6A43F400227B685A6201231846103731
:104A0000BD4680BD80B489B000AFF860B9607A60FF
:104A10003B60FB6893F82030FB77FB681B689B6862
:104A2000BB61FB7F012B03D0FB7F022B40F0AD80ED
:104A3000BB6903F08063002B0AD1BB6903F00063FC
:104A4000002B05D1BB6903F08053002B00F095804B
:104A5000BB691B0E03F003037B6101227B699A4053
:104A60003B681A60BB689B68002B0DD1BB681B6854
:104A70005A05BB68DB68F96809681A437B69183313
:104A80001B010B441A600FE0BB685B68DA00BB686F
:104A90009B681A43BB68DB68F96809681A437B693D
:104AA00018331B010B441A60FB681968BB681A694C
:104AB0007B6918331B010B4404331A60BB681B7DF0
:104AC000012B11D1FB681A687B6918331B01134451
:104AD00004331B68FA68116843F480727B691833E9
:104AE0001B010B4404331A607B6807331B781A06DA
:104AF0007B6806331B781B041A437B6805331B78DD
:104B00001B0213437A68043212781046FA6811685F
:104B100043EA00027B691B010B4403F5C6731A606C
:104B20007B6803331B781A067B6802331B781B04EF
:104B30001A437B6801331B781B0213437A6812788F
:104B40001046FA68116843EA00027B691B010B44B6
:104B500003F5C4731A60FB681A687B6918331B017C
:104B600013441B68FA68116843F001027B6918332B
:104B70001B010B441A6000230EE0FB685B6A43F4E0
:104B80000012FB685A62012306E0FB685B6A43F48B
:104B90008022FB685A62012318462437BD465DF81F
:104BA000047B704780B485B000AF78600023FB6061
:104BB0007B6893F82030FB72FB7A012B02D0FB7AE2
:104BC000022B1DD17B681B689B6803F08063002B60
:104BD00002D0FB680133FB607B681B689B6803F0B5
:104BE0000063002B02D0FB680133FB607B681B680D
:104BF0009B6803F08053002B02D0FB680133FB60FD
:104C0000FB6818461437BD465DF8047B704780B4D6
:104C100087B000AFF860B9607A603B60FB6893F8DA
:104C20002030FB75FB7D012B03D0FB7D022B40F078
:104C30000381BB68002B0ED1FB681B68DB6803F0A7
:104C40000303002B16D1FB685B6A43F40012FB6878
:104C50005A620123F7E0FB681B681B6903F003033A
:104C6000002B07D1FB685B6A43F40012FB685A62B1
:104C70000123E8E0FB681A68BB681B331B0113447F
:104C80001B6803F004027B689A607B689B68002BBA
:104C90000CD1FB681A68BB681B331B0113441B68EB
:104CA0005B0DC3F30A027B681A600BE0FB681A68AD
:104CB000BB681B331B0113441B68DB0823F06042F5
:104CC0007B685A60FB681A68BB681B331B0113447E
:104CD0001B6803F002027B68DA60FB681A68BB6835
:104CE0001B331B01134404331B6803F00803002B20
:104CF00003D07B6808221A610BE0FB681A68BB6866
:104D00001B331B01134404331B6803F00F027B6841
:104D10001A61FB681A68BB681B331B011344043318
:104D20001B681B0ADAB27B689A61FB681A68BB6869
:104D30001B331B01134404331B681B0C9AB27B68A2
:104D40005A61FB681A68BB681B01134403F5DC73E6
:104D50001B68DAB23B681A70FB681A68BB681B01F3
:104D6000134403F5DC731B681A0A3B680133D2B2A3
:104D70001A70FB681A68BB681B01134403F5DC73E7
:104D80001B681A0C3B680233D2B21A70FB681A68AF
:104D9000BB681B01134403F5DC731B681A0E3B68E8
:104DA0000333D2B21A70FB681A68BB681B01134444
:104DB00003F5DE731A683B680433D2B21A70FB68DD
:104DC0001A68BB681B01134403F5DE731B681A0ADB
:104DD0003B680533D2B21A70FB681A68BB681B01C6
:104DE000134403F5DE731B681A0C3B680633D2B21A
:104DF0001A70FB681A68BB681B01134403F5DE7365
:104E00001B681A0E3B680733D2B21A70BB68002BBE
:104E100008D1FB681B68DA68FB681B6842F0200257
:104E2000DA6007E0FB681B681A69FB681B6842F0E0
:104E300020021A61002306E0FB685B6A43F48022CB
:104E4000FB685A62012318461C37BD465DF8047B97
:104E5000704780B485B000AF786039600023FB6094
:104E60007B6893F82030FB72FB7A012B02D0FB7A2F
:104E7000022B0FD13B68002B06D17B681B68DB68D7
:104E800003F00303FB6005E07B681B681B6903F00C
:104E90000303FB60FB6818461437BD465DF8047BCE
:104EA000704780B485B000AF786039607B6893F854
:104EB0002030FB73FB7B012B02D0FB7B022B09D143
:104EC0007B681B6859697B681B683A680A435A61AA
:104ED000002306E07B685B6A43F480227B685A62A9
:104EE000012318461437BD465DF8047B704780B532
:104EF0008AB000AF786000237B627B681B685B69C7
:104F00003B627B681B685B68FB617B681B689B6816
:104F1000BB617B681B68DB687B617B681B681B6906
:104F20003B617B681B689B69FB603B6A03F0010384
:104F3000002B7CD0BB6903F00103002B23D07B68DE
:104F40001B6801229A60BB6903F00203002B03D0A7
:104F5000786800F083F916E0BB6903F00403002BC6
:104F600004D07B6A43F400637B620CE0BB6903F00E
:104F70000803002B04D07B6A43F480537B6202E079
:104F8000786800F089F9BB6903F48073002B24D0A2
:104F90007B681B684FF480729A60BB6903F40073EE
:104FA000002B03D0786800F063F916E0BB6903F4C6
:104FB0008063002B04D07B6A43F400537B620CE0D7
:104FC000BB6903F40063002B04D07B6A43F4804385
:104FD0007B6202E0786800F069F9BB6903F4803312
:104FE000002B24D07B681B684FF480329A60BB6929
:104FF00003F40033002B03D0786800F043F916E087
:10500000BB6903F48023002B04D07B6A43F4004384
:105010007B620CE0BB6903F40023002B04D07B6AA5
:1050200043F480337B6202E0786800F049F93B6A20
:1050300003F00803002B0CD07B6903F01003002B56
:1050400007D07B6A43F400737B627B681B68102285
:10505000DA603B6A03F00403002B0BD07B6903F09A
:105060000803002B06D07B681B680822DA6078688A
:1050700000F030F93B6A03F00203002B09D07B6893
:105080001B68DB6803F00303002B02D0786805F08F
:10509000B7FB3B6A03F04003002B0CD03B6903F0E5
:1050A0001003002B07D07B6A43F480637B627B682C
:1050B0001B6810221A613B6A03F02003002B0BD0FF
:1050C0003B6903F00803002B06D07B681B680822AD
:1050D0001A61786800F008F93B6A03F01003002BAE
:1050E00009D07B681B681B6903F00303002B02D007
:1050F000786805F091FB3B6A03F40033002B0BD07A
:10510000FB6903F01003002B06D07B681B6810229C
:105110005A60786800F0F2F83B6A03F48033002BA1
:105120000BD0FB6903F00803002B06D07B681B68DB
:1051300008225A60786800F0EBF83B6A03F40043F9
:10514000002B7BD0FB6903F00403002B72D03B6A79
:1051500003F48073002B08D0FB6803F00103002BDD
:1051600003D07B6A43F001037B623B6A03F4007364
:10517000002B08D0FB6803F00203002B03D07B6AEE
:1051800043F002037B623B6A03F48063002B08D088
:10519000FB6803F00403002B03D07B6A43F0040395
:1051A0007B623B6A03F40063002B43D0FB6803F08F
:1051B0007003002B3ED0FB6803F07003602B2BD0F4
:1051C000602B2ED8502B22D0502B2AD8402B19D010
:1051D000402B26D8302B10D0302B22D8102B02D0C9
:1051E000202B05D01DE07B6A43F008037B6219E0A9
:1051F0007B6A43F010037B6214E07B6A43F0200378
:105200007B620FE07B6A43F040037B620AE07B6ACB
:1052100043F080037B6205E07B6A43F480737B622A
:1052200000E000BF7B681B689A697B681B6822F0FE
:1052300070029A617B681B6804225A607B6A002BAB
:1052400008D07B685A6A7B6A1A437B685A6278681E
:1052500000F068F800BF2837BD4680BD80B483B039
:1052600000AF786000BF0C37BD465DF8047B704727
:1052700080B483B000AF786000BF0C37BD465DF8E6
:10528000047B704780B483B000AF786000BF0C37F8
:10529000BD465DF8047B704780B483B000AF786092
:1052A00000BF0C37BD465DF8047B704780B483B007
:1052B00000AF786000BF0C37BD465DF8047B7047D7
:1052C00080B483B000AF786000BF0C37BD465DF896
:1052D000047B704780B483B000AF786000BF0C37A8
:1052E000BD465DF8047B704780B483B000AF786042
:1052F00000BF0C37BD465DF8047B704780B483B0B7
:1053000000AF786000BF0C37BD465DF8047B704786
:1053100080B483B000AF786000BF0C37BD465DF845
:10532000047B704780B483B000AF786000BF0C3757
:10533000BD465DF8047B704780B582B000AF7860F1
:105340007B68002B01D1012314E07B681B79DBB261
:10535000002B05D17B6800225A71786804F068F947
:105360007B6802221A717B6800221A617B68012225
:105370001A71002318460837BD4680BD80B489B035
:1053800000AFF860B9607A600023FB77FB68002B00
:1053900002D0BB68002B01D1012342E0FB685B799E
:1053A000012B01D102233CE0FB6801225A71FB680A
:1053B00002221A71FB681B681B68BB617B6803F0E3
:1053C000100340F6FE7202FA03F3DB43BA6913409E
:1053D000BB61BB681A68BB685B6813437B617B6811
:1053E00003F010037A6902FA03F3BA691343BB614D
:1053F000FB681B68BA691A60FB681B6819687B68E0
:1054000003F01003C02202FA03F3DA43FB681B68BF
:105410000A401A60FB6801221A71FB6800225A7167
:10542000FB7F18462437BD465DF8047B70470000BB
:1054300080B584B000AF78607B68002B01D1012378
:105440002BE17B6893F83D30DBB2002B06D17B6803
:10545000002283F83C20786804F05CF97B68242201
:1054600083F83D207B681B681A687B681B6822F004
:1054700001021A607B681B681A687B681B6842F42B
:1054800000421A607B681B681A687B681B6822F4FC
:1054900000421A60FEF754FDF8607B685B68814A41
:1054A000934207D8FB68804A934294BF01230023AC
:1054B000DBB206E0FB687D4A934294BF01230023E0
:1054C000DBB2002B01D00123E7E0FB68784AA2FBA6
:1054D00003239B0CBB607B681B685B6823F03F0168
:1054E0007B681B68BA680A435A607B681B681B6A42
:1054F00023F03F017B685B686A4A934202D8BB682D
:10550000013309E0BB684FF4967202FB03F3694A6A
:10551000A2FB03239B0901337A6812680B431362D1
:105520007B681B68DB6923F44F4222F0FF027B6833
:105530005B685C498B4219D8FB68591E7B685B68C5
:105540005B00B1FBF3F3591C40F6FC730B40002BDE
:105550000AD0FB68591E7B685B685B00B1FBF3F304
:105560000133C3F30B0351E004234FE07B689B68D6
:10557000002B11D1FB68581E7B6859680B465B00F5
:105580000B44B0FBF3F30133C3F30B03002B0CBF4D
:1055900001230023DBB212E0FB68581E7B685968C8
:1055A0000B469B000B4499000B44B0FBF3F3013313
:1055B000C3F30B03002B0CBF01230023DBB2002B32
:1055C00001D0012322E07B689B68002B0ED1FB6891
:1055D000581E7B6859680B465B000B44B0FBF3F325
:1055E0000133C3F30B0343F400430FE0FB68581E81
:1055F0007B6859680B469B000B4499000B44B0FB39
:10560000F3F30133C3F30B0343F4404379680968B0
:105610001343CB617B681B681B6823F0C0017B6868
:10562000DA697B681B6A1A437B681B680A431A6045
:105630007B681B689B6823F4034323F0FF037A68AD
:1056400011697A68D26811437A6812680B439360D3
:105650007B681B68DB6823F0FF017B685A697B6805
:105660009B691A437B681B680A43DA607B681B6886
:105670001A687B681B6842F001021A607B6800228E
:105680001A647B68202283F83D207B6800221A631D
:105690007B68002283F83E20002318461037BD4661
:1056A00080BD00BFA08601007F841E00FF083D0072
:1056B00083DE1B43D34D621080B582B000AF7860AB
:1056C0007B68002B01D101237BE07B685B6A002BA8
:1056D00008D17B685B68B3F5827F09D07B680022C4
:1056E000DA6105E07B6800221A617B6800225A615A
:1056F0007B6800229A627B6893F85130DBB2002B02
:1057000006D17B68002283F85020786804F0A2F864
:105710007B68022283F851207B681B681A687B68CB
:105720001B6822F040021A607B685B6803F4827297
:105730007B689B6803F404431A437B68DB6803F4CB
:1057400000631A437B681B6903F002031A437B68FA
:105750005B6903F001031A437B689B6903F40073E0
:105760001A437B68DB6903F038031A437B681B6AC2
:1057700003F0800342EA03017B689B6A03F4005252
:105780007B681B680A431A607B689B691B0C03F0EB
:1057900004017B685B6A03F010027B681B680A43A4
:1057A0005A607B681B68DA697B681B6822F40062B8
:1057B000DA617B6800225A657B68012283F85120F8
:1057C000002318460837BD4680BD80B58AB000AFBB
:1057D000F860B9607A607B8001237B62FEF7C4FECB
:1057E0003862FB6893F85130FB77FB685B68BB61FC
:1057F0007B88FB82FB7F012B0CD0BB69B3F5827FDA
:1058000006D1FB689B68002B02D1FB7F042B01D0E3
:1058100002237FE1BB68002B05D07B68002B02D000
:105820007B88002B01D1012374E1FB6893F8503091
:10583000012B01D102236DE1FB68012283F8502086
:10584000FB6893F85130DBB2042B03D0FB680522D0
:1058500083F85120FB6800225A65FB687A689A63D6
:10586000FB687A88DA87FB687A889A87FB68BA6867
:105870001A63FB687A88DA86FB687A889A86FB68FE
:1058800000221A64FB6800225A64FB681B681B68CC
:1058900003F04003402B07D0FB681B681A68FB68C5
:1058A0001B6842F040021A60FB68DB68B3F5006FCA
:1058B0007ED1FB685B68002B02D0FB8A012B6CD188
:1058C000FB681B6B1A88FB681B68DA60FB681B6B44
:1058D0009A1CFB681A63FB68DB8E9BB2013B9AB291
:1058E000FB68DA8659E0FB681B689B6803F00203DB
:1058F000022B1BD1FB68DB8E9BB2002B16D07B6A80
:10590000012B13D1FB681B6B1A88FB681B68DA60DC
:10591000FB681B6B9A1CFB681A63FB68DB8E9BB2EF
:10592000013B9AB2FB68DA8600237B62FB681B6846
:105930009B6803F00103012B19D1FB68DB8F9BB23D
:10594000002B14D0FB681B68DA68FB689B6B92B273
:105950001A80FB689B6B9A1CFB689A63FB68DB8F61
:105960009BB2013B9AB2FB68DA8701237B62FEF7A8
:10597000FBFD02463B6AD31A3A6B9A420DD83B6B49
:10598000B3F1FF3F09D0FB68012283F85120FB6887
:10599000002283F850200323BCE0FB68DB8E9BB21F
:1059A000002BA0D1FB68DB8F9BB2002B9BD182E048
:1059B000FB685B68002B02D0FB8A012B71D1FB686E
:1059C0001A6BFB681B680C3312781A70FB681B6B30
:1059D0005A1CFB681A63FB68DB8E9BB2013B9AB2D0
:1059E000FB68DA865DE0FB681B689B6803F00203D6
:1059F000022B1CD1FB68DB8E9BB2002B17D07B6A7D
:105A0000012B14D1FB681A6BFB681B680C331278EE
:105A10001A70FB681B6B5A1CFB681A63FB68DB8EF1
:105A20009BB2013B9AB2FB68DA8600237B62FB687B
:105A30001B689B6803F00103012B19D1FB68DB8F06
:105A40009BB2002B14D0FB681B68DA68FB689B6B69
:105A5000D2B21A70FB689B6B5A1CFB689A63FB6896
:105A6000DB8F9BB2013B9AB2FB68DA8701237B6232
:105A7000FEF77AFD02463B6AD31A3A6B9A4203D884
:105A80003B6BB3F1FF3F02D13B6B002B09D1FB68AD
:105A9000012283F85120FB68002283F85020032361
:105AA00038E0FB68DB8E9BB2002B9CD1FB68DB8F60
:105AB0009BB2002B97D13A6A396BF86800F0B6F8C0
:105AC0000346002B08D0FB6820225A65FB680022A1
:105AD00083F8502001231DE0FB689B68002B0AD14E
:105AE00000233B61FB681B68DB683B61FB681B684C
